:020000040800F2
:10000000000400200102200071152000711520005D
:100010007115200071152000711520007115200048
:100020007115200071152000711520008114200029
:10003000711520007115200071152000F1102000AD
:100040007115200071122000811120005111200033
:10005000711520007115200051142000211420007A
:10006000F1132000C113200091132000711520000E
:1000700071152000711520007115200071152000E8
:1000800071152000711520007115200071152000D8
:10009000711520007115200071152000211320001A
:1000A00071152000B110200071152000711520007D
:1000B00071152000711520007115200071152000A8
:1000C0007115200071152000711520007115200098
:1000D0007115200071152000711520007115200088
:1000E000A1122000411220001112200071152000E1
:1000F0007115200071152000711520007115200068
:100100007115200071152000711520007115200057
:100110007115200071152000711520007115200047
:100120007115200071152000711520007115200037
:100130007115200071152000E111200071152000BB
:100140007115200071152000711520007115200017
:100150007115200071152000711520007115200007
:1001600071152000711520007115200071152000F7
:10017000B1112000711520007115200071152000AB
:100180007115200071152000D11A20007115200072
:1001900071152000711520007115200071152000C7
:1001A00071152000711520007115200071152000B7
:1001B00071152000711520007115200071152000A7
:1001C0007115200071152000711520007115200097
:1001D0007115200071152000711520007115200087
:1001E0007115200071152000711520007115200077
:1001F0007115200071152000711520007115200067
:1002000072B6264880F3098825484EF60851CEF28A
:1002100000010860022080F31488BFF36F8F01F0A3
:1002200087FD01F0C5F94FF055301E491E4A914235
:100230003CBF41F8040BFAE71C49184A91423CBF05
:1002400041F8040BFAE71A491A4A1B4B9A423EBF7F
:1002500051F8040B42F8040BF8E700201749184A3C
:1002600091423CBF41F8040BFAE701F021FD01F097
:1002700057FD144C144DAC4203DA54F8041B884764
:10028000F9E701F095FD114C114DAC4203DA54F839
:10029000041B8847F9E701F03BBD0000000800207F
:1002A00000002000000000200004002000040020C6
:1002B0008C2D000800000220100002200008002001
:1002C000200A00200002200000022000000220007E
:1002D000000220002DE9F04FC1F80CD0D0F80CD06E
:1002E000BDE8F08F002383F311882846A047002043
:1002F00001F0B6FC01F0FCF900DFFEE781F00041FF
:1003000002E000BF83F0004330B54FEA41044FEAFA
:10031000430594EA050F08BF90EA020F1FBF54EA95
:10032000000C55EA020C7FEA645C7FEA655C00F031
:10033000E2804FEA5454D4EB5555B8BF6D420CDD02
:100340002C4480EA020281EA030382EA000083EA85
:10035000010180EA020281EA0303362D88BF30BD25
:1003600011F0004F4FEA01314FF4801C4CEA11317B
:1003700002D0404261EB410113F0004F4FEA0333DA
:100380004CEA133302D0524263EB430394EA050F65
:1003900000F0A780A4F10104D5F1200E0DDB02FAD4
:1003A0000EFC22FA05F2801841F1000103FA0EF268
:1003B000801843FA05F359410EE0A5F120050EF12E
:1003C000200E012A03FA0EFC28BF4CF0020C43FA5F
:1003D00005F3C01851EBE37101F0004507D54FF06C
:1003E000000EDCF1000C7EEB00006EEB0101B1F5BC
:1003F000801F1BD3B1F5001F0CD349085FEA300002
:100400004FEA3C0C04F101044FEA445212F5800F0C
:1004100080F09A80BCF1004F08BF5FEA500C50F1A9
:10042000000041EB045141EA050130BD5FEA4C0C8C
:10043000404141EB010111F4801FA4F10104E9D115
:1004400091F0000F04BF01460020B1FA81F308BF0C
:100450002033A3F10B03B3F120020CDA0C3208DDD8
:1004600002F1140CC2F10C0201FA0CF021FA02F1B3
:100470000CE002F11402D8BFC2F1200C01FA02F123
:1004800020FA0CFCDCBF41EA0C019040E41AA2BF48
:1004900001EB0451294330BD6FEA04041F3C1CDA10
:1004A0000C340EDC04F11404C4F1200220FA04F030
:1004B00001FA02F340EA030021FA04F345EA0301DA
:1004C00030BDC4F10C04C4F1200220FA02F001FA9C
:1004D00004F340EA0300294630BD21FA04F029461E
:1004E00030BD94F0000F83F4801306BF81F48011B7
:1004F0000134013D4EE77FEA645C18BF7FEA655C2A
:1005000029D094EA050F08BF90EA020F05D054EAFB
:10051000000C04BF1946104630BD91EA030F1EBF00
:100520000021002030BD5FEA545C05D14000494104
:1005300028BF41F0004130BD14F580043CBF01F5F7
:10054000801130BD01F0004545F0FE4141F47001DD
:100550004FF0000030BD7FEA645C1ABF19461046B8
:100560007FEA655C1CBF0B46024650EA013406BFB9
:1005700052EA033591EA030F41F4002130BD00BF78
:1005800090F0000F04BF0021704730B54FF4806435
:1005900004F132044FF000054FF0000150E700BFB6
:1005A00090F0000F04BF0021704730B54FF4806415
:1005B00004F1320410F0004548BF40424FF0000102
:1005C0003EE700BF42004FEAE2014FEA31014FEA45
:1005D00002701FBF12F07F4393F07F4F81F0605194
:1005E000704792F0000F14BF93F07F4F704730B503
:1005F0004FF4607401F0004521F0004120E700BF96
:1006000050EA010208BF704730B54FF000050AE01C
:1006100050EA010208BF704730B511F0004502D51D
:10062000404261EB41014FF4806404F132045FEA1F
:10063000915C3FF4DCAE4FF003025FEADC0C18BFC4
:1006400003325FEADC0C18BF033202EBDC02C2F1BA
:10065000200300FA03FC20FA02F001FA03FE40EA4C
:100660000E0021FA02F11444C1E600BF70B54FF04C
:10067000FF0C4CF4E06C1CEA11541DBF1CEA13552E
:1006800094EA0C0F95EA0C0F00F0DEF82C4481EA96
:10069000030621EA4C5123EA4C5350EA013518BFB6
:1006A00052EA033541F4801143F4801338D0A0FBA3
:1006B00002CE4FF00005E1FB02E506F00042E0FB50
:1006C00003E54FF00006E1FB03569CF0000F18BF56
:1006D0004EF0010EA4F1FF04B6F5007F64F54074FE
:1006E00004D25FEA4E0E6D4146EB060642EAC62191
:1006F00041EA55514FEAC52040EA5E504FEACE2EFE
:10070000B4F1FD0C88BFBCF5E06F1ED8BEF1004F00
:1007100008BF5FEA500E50F1000041EB045170BD7C
:1007200006F0004646EA010140EA020081EA0301C0
:10073000B4EB5C04C2BFD4EB0C0541EA045170BDBC
:1007400041F480114FF0000E013C00F3AB8014F136
:10075000360FDEBF002001F0004170BDC4F100047F
:10076000203C35DA0C341BDC04F11404C4F1200500
:1007700000FA05F320FA04F001FA05F240EA02005B
:1007800001F0004221F0004110EBD37021FA04F691
:1007900042EB06015EEA430E08BF20EAD37070BD4B
:1007A000C4F10C04C4F1200500FA04F320FA05F0AA
:1007B00001FA04F240EA020001F0004110EBD370AC
:1007C00041F100015EEA430E08BF20EAD37070BD1C
:1007D000C4F1200500FA05F24EEA020E20FA04F3F5
:1007E00001FA05F243EA020321FA04F001F00041A4
:1007F00021FA04F220EA020000EBD3705EEA430E15
:1008000008BF20EAD37070BD94F0000F0FD101F043
:100810000046400041EB010111F4801F08BF013C7C
:10082000F7D041EA060195F0000F18BF704703F0BA
:100830000046520043EB030313F4801F08BF013D41
:10084000F7D043EA0603704794EA0C0F0CEA1355FD
:1008500018BF95EA0C0F0CD050EA410618BF52EAB7
:100860004306D1D181EA030101F000414FF00000BD
:1008700070BD50EA410606BF1046194652EA4306CB
:1008800019D094EA0C0F02D150EA013613D195EA3F
:100890000C0F05D152EA03361CBF104619460AD187
:1008A00081EA030101F0004141F0FE4141F4700191
:1008B0004FF0000070BD41F0FE4141F4780170BD81
:1008C00070B54FF0FF0C4CF4E06C1CEA11541DBFE6
:1008D0001CEA135594EA0C0F95EA0C0F00F0A7F8E8
:1008E000A4EB050481EA030E52EA03354FEA013115
:1008F00000F088804FEA03334FF0805545EA131328
:1009000043EA12634FEA022245EA111545EA1065EF
:100910004FEA00260EF000419D4208BF964244F186
:10092000FD0404F5407402D25B084FEA3202B61AA5
:1009300065EB03055B084FEA32024FF480104FF479
:10094000002CB6EB020E75EB030E22BFB61A7546ED
:1009500040EA0C005B084FEA3202B6EB020E75EB80
:10096000030E22BFB61A754640EA5C005B084FEAE8
:100970003202B6EB020E75EB030E22BFB61A7546B5
:1009800040EA9C005B084FEA3202B6EB020E75EBC0
:10099000030E22BFB61A754640EADC0055EA060E81
:1009A00018D04FEA051545EA16754FEA06164FEAC4
:1009B000C30343EA52734FEAC2025FEA1C1CC0D170
:1009C00011F4801F0BD141EA00014FF000004FF0FD
:1009D000004CB6E711F4801F04BF01430020B4F1BE
:1009E000FD0C88BFBCF5E06F3FF6AFAEB5EB030C76
:1009F00004BFB6EB020C5FEA500C50F1000041EB73
:100A0000045170BD0EF0004E4EEA113114EB5C043F
:100A1000C2BFD4EB0C0541EA045170BD41F4801112
:100A20004FF0000E013C90E645EA060E8DE60CEA1A
:100A3000135594EA0C0F08BF95EA0C0F3FF43BAF37
:100A400094EA0C0F0AD150EA01347FF434AF95EAEE
:100A50000C0F7FF425AF104619462CE795EA0C0FD2
:100A600006D152EA03353FF4FDAE1046194622E79F
:100A700050EA410618BF52EA43067FF4C5AE50EA79
:100A800041047FF40DAF52EA43057FF4EBAE12E769
:100A90004FEA4102B2F1E04324BFB3F5001CDCF1A0
:100AA000FE5C0DD901F0004C4FEAC0024CEA5070D8
:100AB000B2F1004F40EB830008BF20F00100704707
:100AC00011F0804F21D113F13872BCBF01F000400A
:100AD000704741F480114FEA5252C2F11802C2F13C
:100AE000200C10FA0CF320FA02F018BF40F00100BD
:100AF0004FEAC1234FEAD32303FA0CFC40EA0C006F
:100B000023FA02F34FEA4303CCE77FEA625307D1AB
:100B100050EA01331EBF4FF0FE4040F440007047E2
:100B200001F0004040F0FE4040F40000704700BF7C
:100B300080F0004002E000BF81F0004142001FBF92
:100B40005FEA410392EA030F7FEA226C7FEA236C9B
:100B50006AD04FEA1262D2EB1363C1BFD218414090
:100B600048404140B8BF5B42192B88BF704710F026
:100B7000004F40F4000020F07F4018BF404211F0C9
:100B8000004F41F4000121F07F4118BF494292EA31
:100B9000030F3FD0A2F1010241FA03FC10EB0C005D
:100BA000C3F1200301FA03F100F0004302D54942EA
:100BB00060EB4000B0F5000F13D3B0F1807F06D397
:100BC00040084FEA310102F10102FE2A51D2B1F18F
:100BD000004F40EBC25008BF20F0010040EA030084
:100BE0007047490040EB000010F4000FA2F1010231
:100BF000EDD1B0FA80FCACF1080CB2EB0C0200FABB
:100C00000CF0AABF00EBC25052421843BCBFD04008
:100C10001843704792F0000F81F4000106BF80F482
:100C200000000132013BB5E74FEA41037FEA226C45
:100C300018BF7FEA236C21D092EA030F04D092F010
:100C4000000F08BF0846704790EA010F1CBF002044
:100C5000704712F07F4F04D1400028BF40F00040A1
:100C6000704712F100723CBF00F50000704700F0C1
:100C7000004343F0FE4040F4000070477FEA2262E8
:100C800016BF08467FEA23630146420206BF5FEAB9
:100C9000412390EA010F40F4800070474FF00003B9
:100CA00004E000BF10F0004348BF40425FEA000C80
:100CB00008BF704743F0964301464FF000001CE028
:100CC00050EA010208BF70474FF000030AE000BF7E
:100CD00050EA010208BF704711F0004302D54042BC
:100CE00061EB41015FEA010C02BF8446014600202E
:100CF00043F0B64308BFA3F18053A3F50003BCFA49
:100D00008CF2083AA3EBC25310DB01FA02FC6344F5
:100D100000FA02FCC2F12002BCF1004F20FA02F2FC
:100D200043EB020008BF20F00100704702F12002EF
:100D300001FA02FCC2F1200250EA4C0021FA02F250
:100D400043EB020008BF20EADC7070474FF0FF0C55
:100D50001CEAD0521EBF1CEAD15392EA0C0F93EA50
:100D60000C0F6FD01A4480EA010C400218BF5FEAF2
:100D700041211ED04FF0006343EA501043EA511165
:100D8000A0FB01310CF00040B1F5000F3EBF49005F
:100D900041EAD3715B0040EA010062F17F02FD2A63
:100DA0001DD8B3F1004F40EBC25008BF20F0010046
:100DB000704790F0000F0CF0004C08BF49024CEA5D
:100DC000502040EA51207F3AC2BFD2F1FF0340EAEF
:100DD000C250704740F400004FF00003013A5DDC60
:100DE00012F1190FDCBF00F000407047C2F10002A1
:100DF000410021FA02F1C2F1200200FA02FC5FEA8E
:100E0000310040F1000053EA4C0308BF20EADC70D7
:100E1000704792F0000F00F0004C02BF400010F449
:100E2000000F013AF9D040EA0C0093F0000F01F0F6
:100E3000004C02BF490011F4000F013BF9D041EA18
:100E40000C018FE70CEAD15392EA0C0F18BF93EA1A
:100E50000C0F0AD030F0004C18BF31F0004CD8D144
:100E600080EA010000F00040704790F0000F17BFCB
:100E700090F0004F084691F0000F91F0004F14D011
:100E800092EA0C0F01D142020FD193EA0C0F03D169
:100E90004B0218BF084608D180EA010000F000406C
:100EA00040F0FE4040F40000704740F0FE4040F447
:100EB000400070474FF0FF0C1CEAD0521EBF1CEAE6
:100EC000D15392EA0C0F93EA0C0F69D0A2EB030204
:100ED00080EA010C49024FEA402037D04FF080539E
:100EE00043EA111143EA10130CF000408B4238BF63
:100EF0005B0042F17D024FF4000C8B4224BF5B1A71
:100F000040EA0C00B3EB510F24BFA3EB510340EABE
:100F10005C00B3EB910F24BFA3EB910340EA9C006C
:100F2000B3EBD10F24BFA3EBD10340EADC001B01DC
:100F300018BF5FEA1C1CE0D1FD2A3FF650AF8B4280
:100F400040EBC25008BF20F0010070470CF0004C8D
:100F50004CEA50207F32C2BFD2F1FF0340EAC250B8
:100F6000704740F400004FF00003013A37E792F079
:100F7000000F00F0004C02BF400010F4000F013AD7
:100F8000F9D040EA0C0093F0000F01F0004C02BFD2
:100F9000490011F4000F013BF9D041EA0C0195E73B
:100FA0000CEAD15392EA0C0F08D142027FF47DAFD4
:100FB00093EA0C0F7FF470AF084676E793EA0C0FC4
:100FC00004D14B023FF44CAF08466EE730F0004CC2
:100FD00018BF31F0004CCAD130F000427FF45CAF52
:100FE00031F000437FF43CAF5FE700BF4FEA4002BF
:100FF000B2F1FE4F0FD34FF09E03B3EB12620DD947
:101000004FEA002343F0004310F0004F23FA02F0B0
:1010100018BF404270474FF00000704712F1610F57
:1010200001D1420205D110F0004008BF6FF000402E
:1010300070474FF000007047000000000000000003
:10104000024A136843F08003136070470078004041
:10105000202383F31188114B5B6813F4006302D1E2
:1010600083F31188704780B400AFEFF309834FF02A
:101070008071A3F1200243F8041C82F30988084A16
:10108000116892698968926891428CBF054A064A44
:1010900043F8082CBD4680BC704700BF00ED00E05F
:1010A00018080020F5022000F802200000000000CF
:1010B00008B50B4B00211878DA680428116107D1B4
:1010C0000220187011601161D16821F0FF01D16018
:1010D0005B6803485B689847BDE80840FFF7B8BF06
:1010E00008080020000000000000000000000000D0
:1010F000F8B5202787F31188124DEA8C2E4601326D
:1011000056F81C3F92B2B342EA8413D01C89013CCA
:10111000A4B21C8174B91A68D968DC605660EA61AF
:1011200084F311881869884787F31188EB691A8955
:10113000002AF0D0002383F31188BDE8F840FFF7C0
:1011400087BF00BF1808002000000000000000005A
:10115000094A08B5536911680B4003F480035361D1
:101160002BB1064816214368D3F8B4309847BDE840
:101170000840FFF76DBF00BF003C014000080020A1
:10118000094A08B5536911680B4003F40013536111
:101190002BB1064815214368D3F8AC309847BDE819
:1011A0000840FFF755BF00BF003C01400008002089
:1011B000094A08B5536911680B4003F48013536161
:1011C0002BB1064814214368D3F8A4309847BDE8F2
:1011D0000840FFF73DBF00BF003C01400008002071
:1011E000094A08B5536911680B4003F400235361A1
:1011F0002BB1064813214368D3F89C309847BDE8CB
:101200000840FFF725BF00BF003C01400008002058
:10121000094A08B5536911680B4003F480235361F0
:101220002BB1064812214368D3F894309847BDE8A3
:101230000840FFF70DBF00BF003C01400008002040
:10124000094A08B5536911680B4003F40033536130
:101250002BB1064811214368D3F88C309847BDE87C
:101260000840FFF7F5BE00BF003C01400008002029
:10127000094A08B5536911680B4003F48033536180
:101280002BB1064810214368D3F884309847BDE855
:101290000840FFF7DDBE00BF003C01400008002011
:1012A0001D4B10B55C691A68144004F47C425A6105
:1012B00062052AD4230522D4E0041AD4A10412D44E
:1012C00062040AD4230404D514480F214368DB6F59
:1012D0009847BDE81040FFF7BBBE10480E21436899
:1012E0005B6F9847EEE70D480D214368DB6E98472A
:1012F000E6E70A480C2143685B6E9847DEE707483B
:101300000B214368DB6D9847D6E704480A21436800
:101310005B6D9847CEE700BF003C0140000800200D
:10132000194B10B55C691A68144004F478725A615C
:10133000A30622D460061AD4210612D4E2050AD4E8
:10134000A30504D5114809214368DB6C9847BDE823
:101350001040FFF77DBE0D48082143685B6C98473D
:10136000EEE70A4807214368DB6B9847E6E7074842
:10137000062143685B6B9847DEE704480521436814
:10138000DB6A9847D6E700BF003C01400008002018
:10139000084A08B5536911680B4003F01003536104
:1013A00023B10548042143685B6A9847BDE80840BB
:1013B000FFF74EBE003C0140000800200000000086
:1013C000084A08B5536911680B4003F008035361DC
:1013D00023B1054803214368DB699847BDE808400D
:1013E000FFF736BE003C014000080020000000006E
:1013F000084A08B5536911680B4003F004035361B0
:1014000023B10548022143685B699847BDE808405D
:10141000FFF71EBE003C0140000800200000000055
:10142000084A08B5536911680B4003F00203536181
:1014300023B1054801214368DB689847BDE80840AF
:10144000FFF706BE003C014000080020000000003D
:10145000084A08B5536911680B4003F00103536152
:1014600023B10548002143685B689847BDE8084000
:10147000FFF7EEBD003C0140000800200000000026
:1014800080B400AFEFF30983203383F3098800238E
:1014900083F31188BD4680BC704700BF0000000088
:1014A00070B4202383F311880D4E4A1E4D420D4C1B
:1014B000336802442468013B2A4058182840231A04
:1014C0009A4206D802440023326083F3118870BC2C
:1014D00070470020002383F3118870BC704700BF61
:1014E0008C09002088090020000000000000000096
:1014F000202383F3118890F82030072B0ED8DFE8E3
:1015000003F0280D0D2408040D08426A9368013386
:10151000936090E80C001A600268536000228168B2
:101520000E4B80F8202010B44FF0FF3444621B684B
:101530009A688A42FBD25A680021036042601060B8
:10154000586081F3118810BC7047436A00221A600A
:10155000E4E7002383F31188704700BF18080020D8
:10156000FEE700BF000000000000000000000000D7
:10157000FEE700BF000000000000000000000000C7
:10158000084B1A68996930B481F820000125146865
:10159000104663601C6082F820509A6130BCFEF7F0
:1015A00099BE00BF180800200000000000000000E5
:1015B00030B4334B4FF44040324A334C19461C642C
:1015C00010601A6842F001021A600B689B07FCD594
:1015D0008B682B4A23F003038B608B688B609368C6
:1015E00013F00C03FBD11068254900F0F9001060DE
:1015F0009360136843F4A02313600B689D03FCD52C
:10160000224B20484B600B6843F080730B604368AB
:101610005C04FCD503681B4A43F4803303605368C1
:10162000D903FCD51368174943F4003313604B68A2
:101630009A03FCD5124A13689B01FCD5144B40F267
:101640000931144D40F2022400209560C2F88C400C
:10165000C2F8900019609368094943F0020393604F
:101660008B6803F00C03082BFAD14B6C43F48043D6
:101670004B644B6E43F4804330BC4B66704700BFF5
:10168000003802400070004000040010086C40095F
:10169000003C02400094993000000000000000006F
:1016A0000E4B82685B680E499B1A426830B40C6F1F
:1016B000C1681B1B01318360C160D0E90445E41897
:1016C00045F100059342026888BF43609342C0E938
:1016D000044538BF036030BC704700BF001000E015
:1016E00018080020000000000000000000000000BA
:1016F0000E4A0121106830B4036800259469136014
:101700005A6080F8201084F82050A168906100E0B1
:101710001B689A689142FBD35A6821462360626035
:1017200014605C6030BCFEF7D5BD00BF1808002017
:101730004FF6FF739942F0B587B031D01C4C074685
:101740001C48E369A5691A8905959142049005D959
:10175000891A1B6889B21A898A42F9D35D6801AA7D
:1017600001934FF6FF76029538462A605A60ADF82D
:101770000C101A89511A1981A684FFF701FF049BE6
:1017800053B1019BBDF80C001A89029902441A81D9
:101790000B60019B5960A684A369586A07B0F0BD2D
:1017A000034CFFF7EDFEA369586A07B0F0BD00BF18
:1017B00018080020F11420000000000000000000C4
:1017C00061B10246074B04209B6910B4546883E85A
:1017D00014002360536010BCFFF7AABF4FF0FF3026
:1017E000704700BF18080020000000000000000043
:1017F0002DE9F04F994683B004460E461546D0F8C1
:101800001C80202383F31188264B09F1FF3A00271F
:10181000DB8C1FFA8AFA19FA83F39BB20193A3684F
:1018200013B3616906F1010BA368481C013B6061B9
:10183000A36033780B7061692369994201D3E3682F
:101840006361B8F1000F01D02046C047002383F345
:101850001188013D07F1010719D0202383F3118876
:10186000A3685E46002BDCD14FF6FD72924512D87C
:101870000C4AD18C019A511A89B2894505D3204668
:10188000FFF79EFF0028CAD0002383F31188384653
:1018900003B0BDE8F08F49462046FFF791FF0028CE
:1018A000BDD0F1E718080020000000000000000093
:1018B0003030FFF79DBF00BF0000000000000000B7
:1018C00030304FF6FF73FFF793BF00BF00000000FA
:1018D000F8B504460F461646202383F3118803E02B
:1018E000FFF76EFF002819DBA56831462046002D62
:1018F000F6D06269A368511C013B6161A360177057
:10190000626923699A4201D3E3686361E3690BB1B9
:1019100020469847002080F31188F8BD85F3118890
:10192000F8BD00BF00000000000000000000000043
:101930003030FFF7CDBF00BF000000000000000006
:1019400030304FF6FF72FFF7C3BF00BF000000004A
:101950002DE9F04F994683B004460E461546D0F85F
:101960001C80202383F31188264B09F1FF3A0027BE
:10197000DB8C1FFA8AFA19FA83F39BB20193A368EE
:1019800013B3A16906F1010BA368481C013BA061D8
:10199000A3600B783370A1692369994201D3E3688E
:1019A000A361B8F1000F01D02046C047002383F3A4
:1019B0001188013D07F1010719D0202383F3118815
:1019C000A3685E46002BDCD14FF6FD72924512D81B
:1019D0000C4AD18C019A511A89B2894505D3204607
:1019E000FFF7EEFE0028CAD0002383F311883846A3
:1019F00003B0BDE8F08F49462046FFF7E1FE00281E
:101A0000BDD0F1E718080020000000000000000031
:101A10000C30FFF79DBF00BF000000000000000079
:101A20000C304FF6FF73FFF793BF00BF00000000BC
:101A300070B5202304460E4683F3118803E0FFF7B8
:101A4000BFFE002819DBA56831462046002DF6D0E0
:101A5000A169A3684A1C2069013B8242A261A3607C
:101A60000D7801D3E368A361E3690BB12046984781
:101A7000002383F31188284670BD85F3118870BD5B
:101A80000C30FFF7D5BF00BF0000000000000000D1
:101A90000C304FF6FF71FFF7CBBF00BF0000000016
:101AA00010B400220446084B816880F820201B688F
:101AB0009A688A42FBD25A682046236062601460AA
:101AC0005C6010BC704700BF1808002000000000D8
:101AD0002DE9F0415F4C666D3768F5692A0735627C
:101AE00052D1EB0545D4A80617D4390601D52A06EC
:101AF00065D46B060DD5202383F31188626CA36C2B
:101B00009A4200F0868027F040070023376083F375
:101B10001188BDE8F041FFF79BBA202383F31188B9
:101B2000726A94F85C10636901EA0208002B78D0AD
:101B3000236A626A934278D06269591C0132216239
:101B4000626183F80080226AE3699A425ED2E368A8
:101B5000414A934209D019684FF0000E1846E160DF
:101B60004A60C3F824E0FFF79BFF002383F311884A
:101B7000BBE7202383F311884FF4007000F090FD41
:101B8000002383F31188AEE715F0080F0CBF002087
:101B90008020EB074FF0200348BF40F02000A9074A
:101BA00048BF40F040006A0748BF40F4807083F3AC
:101BB000118800F075FD002383F3118891E720233D
:101BC00083F31188A36C626C9A4236D0A26B581CC6
:101BD000216C0132A0648842A26393F8008001D393
:101BE000E36BA364236B1D4A934209D019684FF03D
:101BF000000E184621634A60C3F824E0FFF750FF47
:101C0000C6F82880002383F3118872E7A369236252
:101C10009DE7A36B002B3FF476AF102000F040FD52
:101C200071E7042000F03CFD82E76269002A83D05E
:101C30004FF4806000F034FD97E7A26B002AC5D016
:101C4000082000F02DFD27F0C00343F0400333606F
:101C5000D8E700BFB0090020BC090020E00900203F
:101C600038B52022034682F31188104A946904F1A2
:101C70002805A06A6362854206D00368A362FFF765
:101C80000FFFA06AA842F8D194F8223043B994F823
:101C900021309B0704D1226963691A61226953616B
:101CA0000F20BDE83840FFF76BBC00BF18080020CC
:101CB000F0B5124F0026124D07F1800E114C124B59
:101CC00012499C4211D904391A4651F8040F42F8BE
:101CD000040B9442F9D8DA43144424F00304043486
:101CE00023449D4203D943F8046B9D42FBD810372F
:101CF000774502D297E83A00E3E7F0BDD02B000821
:101D00001000022010000220100002209C2D00086C
:101D1000FEE700BF0000000000000000000000001F
:101D2000704700BF0000000000000000000000003D
:101D3000F0B5BFF34F8FBFF36F8F1B4C0022C4F879
:101D40005022636943F400336361BFF34F8FBFF3E5
:101D50006F8FC4F88420BFF34F8FD4F8803043F6E0
:101D6000E07EC3F3C906C3F34E33B7075D0105EA4E
:101D70000E003946324641EA0003013A01F1404182
:101D8000C4F86032531CF6D1203D15F1200FEED17E
:101D9000BFF34F8F636943F480336361BFF34F8FA9
:101DA000BFF36F8FF0BD00BF00ED00E0000000004A
:101DB000BE4C00254FF6FF714FF0FF3204F11C03BB
:101DC00000264FF6FF082DE9804889B000272460DF
:101DD00002A86460A184E3612362029224616461C9
:101DE000A560E5842567039504950595CDE906670B
:101DF00000F04EFC02A8FFF753FCAD4AAD484FF08F
:101E0000800EAD4E04F12C0710600120AB4AAC49A6
:101E10001660AC4B01F1100CAB4E84F84D500B60CA
:101E2000F268049B02EA0802C4F834E02367A74B77
:101E3000C4F868E01343DFF8D8E26269DFF8D482BF
:101E400025668D61C1F810C0C1F814C004F1540CAE
:101E5000226484F84E006566E463C4F84480176128
:101E600004F15802F360DEF80C308D6043F08073AB
:101E7000CD6067612021A7611027A56484F84C001C
:101E8000C4F854C0CEF80C30914BDFF88CE2A26558
:101E9000E265C3F8B0EF1A6802431A60F77786F874
:101EA000221085F3118862B681F31188894B0226CE
:101EB0006269C3F8980003F16C07C3F8CC0003F122
:101EC000900183F8B2008448DFF850E2C3F88C0038
:101ED000824883F8B06003F1BC06C3F8A42083F8FD
:101EE000B150C3F8C450C3F89C7003F1B807C3F8ED
:101EF000A8001D67C3F8C850C3F8A040C3F8AC30B1
:101F0000C3F86CE01161A269C3F8B45090686161D4
:101F1000C3F8B870C3F8BC60C3F8C060002800F014
:101F2000D58283F8B0502468A268002AFBD1C3F898
:101F300090406068C3F894000160616082F311888A
:101F4000674B4FF0FF31674C186919611A61586986
:101F500059615A61186A60F0805018621A62586AB2
:101F600059625A62216841F480712160196F01F44D
:101F70004071B1F5807F03D04FF4803119671A6743
:101F8000574B1A6F184642F019021A67036F9907E8
:101F9000FCD5544C40F2FF7C00234FF0FF376168C2
:101FA0004BF67E796FF0704840F6082A21F40071F4
:101FB0004D4ADFF86CE161604FF6FF71046B4B4EE8
:101FC00044EA0C040463056D494C45EA0C05DFF84E
:101FD00054C105654FF430056360A760C4F80CC0B8
:101FE000DFF844C16161C4F820C0DFF840C1C4F823
:101FF00024C0DFF83CC1C4F800C06FF4401CC4F832
:102000000434C4F8087407F18A4707F1551707F537
:10201000A857C4F80C74C4F81494C4F82034C4F855
:102020002454344D344FC4F8005404F5006477252B
:102030006360DFF80091C4F808804FF42028E7605F
:102040002E4F616127624FF055376362C4F800A0DC
:1020500002F10C0AC4F80434C4F808C44FF0086C48
:10206000C4F80C944FF00F09C4F81414C4F82034C9
:10207000C4F82454224DC4F800840EF11008C4F8AA
:102080000438C4F80858C4F80C781E4DC4F8141865
:10209000C4F82038C4F82438C4F800381A4C6B60EF
:1020A000AC601A4CEF60696146E000BF1808002080
:1020B0008C09002010000220000008208809002060
:1020C00068090020A114200000ED00E00003FA05DB
:1020D000001000E090080020E5022000282D0008F4
:1020E0000038024000700040B0090020A009002024
:1020F000000002400140001851505501B000BB00E3
:10210000F3FFFFCF00140240FFCF3F000018024052
:10211000F0ED00E0102D000855CEACC56115200093
:102120009009002051550040B00B00B00AAA0A00E7
:102130002880AE2A555550552B626B622B60854D19
:102140006360A560844DE560844D616123626562D2
:102150000125C4F800C09446C4F80434C4F80894B7
:10216000DFF82892C4F80C944FF01009C4F8141446
:10217000C4F82034C4F82434C4F8003404F50064EE
:102180006360A360E76061612362C2F818E0636284
:10219000C2F824E02360C2F820E04FF0C00EC4F87B
:1021A0000434C2F81C80C4F808341572C4F80C74E6
:1021B000C2F80CA0C4F81414C2F810A04FF4802A7E
:1021C000C4F82034C4F82434C4F80034C4F8043803
:1021D000C4F80838C4F80C780727C4F81418604904
:1021E000C4F82038C4F82438C4F800384CF8041B6C
:1021F0005C4C5D49DFF89881E1605C495361C2F84D
:1022000004C006EB090CC8F8043088F800502570AB
:1022100002F1300563609362D663D2621265C2F840
:10222000389081F852E3DFF86CE19664C1F888A138
:1022300056648026C1F808A0C2F840C041F8ECEC12
:10224000156341F8E83C2023556341F8F07C484D84
:102250004849D5645165484D4849956581F82360E2
:1022600083F31188137A012B00F03A81916D4FF0BE
:10227000400E43480125536D40F22D17A0FB01018C
:1022800002264FF0FF30890AD960C3F804E09D6050
:1022900000251F601862167282F85C0085F31188B1
:1022A0004FF4807000F034FA802000F031FA2023DF
:1022B00083F311882378DFF8E0B0012BC4F804B071
:1022C00000F07881A368DBF800000022E1680225B5
:1022D000DBF80860B3FBF0F3DBF80C00013B0A60AD
:1022E0009BB220F0FF004E6025708B620A61C860CF
:1022F00082F3118823492020DBF80030A1FB03136F
:10230000590980F3118860680125E3680326406855
:102310002670D9625D615A621A6110B1DA682A4387
:10232000DA6085210022196082F31188202383F36B
:10233000118898F80030DFF864E0012BC8F804E059
:1023400000F0D38000274FF001090F4B4FF00F0A28
:1023500039463AE000F0CC3C5555155100B0B0007C
:10236000642D0008080800200000014000E100E0A2
:10237000411020000078004080F9370300ED00E0B4
:10238000B5814E1B1F85EB51003C01405055555502
:1023900000080020BF4B030000000220502C000862
:1023A00009FA01F01C68C24314401C605C681440C8
:1023B0005C609C6814409C60DC682240DA60586174
:1023C0000131182939D05EF831707A07E8D50F2924
:1023D00009FA01F214D821F0030401F0030CC7F349
:1023E000031004F180444FEA8C0C04F59C340AFA83
:1023F0000CF600FA0CF0A56825EA06052843A06053
:102400009C68FE076FEA02004CBF14430440BD07FE
:102410009C60DC684CBF14430440DC600EEBC104DC
:102420006468002C55D01C680131224318291A60B9
:102430005A6800EA02005860C5D10222002388F8D9
:10244000002083F31188DFF8C081674F674B1D6858
:102450002846FEF727FC4146FEF72CFDDBF800403E
:102460008146FEF7C3FD06462046FEF717FC82466E
:10247000A7FB04304009FEF711FC01465046FEF769
:1024800019FD5B4B1968FEF761FCFEF7AFFD01908B
:102490004846FEF797F852A3D3E90023FEF7E6F883
:1024A000FEF7F6FAFEF7A2FD334600902A465149A0
:1024B000514800F07DF9202383F31188642108201E
:1024C000FFF736F9002383F31188BFE782F8200075
:1024D000FEE75C6822435A601A68104018606FE794
:1024E000036C43F080430364C0E6444B6022402504
:1024F0004FF4807483F806234FF40070C3F88051C2
:102500004FF480611D6080274FF40006F0254FF0E6
:10251000020983F807234FF0804CC3F880711F60D5
:102520004FF4805783F80823C3F880411C6083F878
:102530000923C3F88001186083F80A23C3F88011C7
:10254000196083F81723C3F880611E60042683F89E
:102550002823C3F884415C60082483F80123C3F86E
:102560008091C3F8009083F82953C3F88401586020
:102570004FF0005083F82A23C3F88411596083F880
:102580003E23C3F884C1C3F804C083F84C23C3F8C6
:1025900088719F6083F80253C3F880611E6083F8DE
:1025A0000353C3F880411C6083F85D23C3F888019E
:1025B0009860C7E6124A4FF00076124B7027506CB5
:1025C000A36040F001000D495064506A40F00100E2
:1025D0005062556281F81973C1F880610E6072E62D
:1025E000182D4454FB21F93F1F85EB51180A002098
:1025F000100A0020302D0008B009002000E100E0A2
:102600000038024000E6DF0C0000B4430000000088
:1026100070B50F4C0F4A104B256818681560FEF70F
:1026200041FB0E49FEF746FC0D4EFDF7CBFF06A31E
:10263000D3E90023FEF71AF8FEF72AFA29462060AC
:10264000FEF77AFA306070BD182D4454FB21F93F33
:10265000140A00201C0A0020180A00200000B443BD
:10266000100A002000000000000000000000000030
:10267000054B064A1B6913F0100F136814BF013392
:1026800003F1FF331360704700040240180A002072
:10269000014B5B6883607047001000E000000000A1
:1026A000F8B5174F57F8044FBC4221D00546002615
:1026B00002E02468BC421BD0E3682B43E36015B101
:1026C00022691342F5D06068A368416B90F820201E
:1026D0000B430A2A43630CD00B2AEAD1426A32EA3E
:1026E0000303E6D14662FFF7DBF92468BC42E3D17D
:1026F000F8BD426A1342DCD04662FFF7D1F9F4E735
:10270000B0090020000000000000000000000000F0
:102710002DE9F047002102254FF008084FF00F0C7B
:102720001F4C4FF0010E03270FE0266A26EA020233
:1027300042EA09022262226813402B4323604008C8
:1027400001F101014FEA850527D04B0001F0070296
:1027500010F0010F0EFA01F607FA03F34FEA8202B6
:102760006FEA0303EBD0D4F804A0072908FA02F9B2
:102770000CFA02F22AEA06066660A66806EA030672
:10278000A660E66806EA0306E660CED9666A26EA2F
:10279000020242EA09026262CDE7BDE8F08700BFAB
:1027A00000100240000000000000000000000000D7
:1027B0000EB42DE9F04F86B000234FF05409DFF836
:1027C00080A210AD9D4C00930295CDF80490009A24
:1027D0002646DAF80030013201999B689848009249
:1027E000984723780193019B741C002B00F02081F3
:1027F000252BECD171782D2900F04B814FF0000C86
:10280000302900F041814FF02008621C002405E0CF
:102810002B78043512F8011B03EB4004A1F13003BF
:10282000164604EB8400DBB2092BF3D92A29EFD03A
:102830002E294FF000024AD001F0DF034C2B55D176
:10284000337801931BB11946013633780193A1F116
:102850004403342B00F20C81DFE813F08F010A01EE
:102860000A010A010A018F010A010A010A010A018B
:102870000A014D010A010A010A010A010A01520175
:102880000A010A0187010A010A010A010A010A0173
:102890000A010A010A010A010A01F6008F010A0170
:1028A0000A010A010A018F010A010A010A010A014B
:1028B0000A014D010A010A010A0189000A015201B7
:1028C0000A010A0187012B78043503EB400216F850
:1028D000011B02EB8200A1F13003DBB2092BF4D91A
:1028E0002A29F0D001F0DF034C2BA9D0A1F141033C
:1028F000A1F14400DBB2342800F2B880DFE810F028
:102900000A01B600B600B600B6000A01B600B6006D
:10291000B600B600B6000301B600B600B600B600B9
:10292000B600CE00B600B6003801B600B600B6005C
:10293000B600B600B600B600B600B600B600A200FB
:102940000A01B600B600B600B6000A01B600B6002D
:10295000B600B600B6000301B600B600B6003500FA
:10296000B600CE00B600B6003801337801932F6868
:102970000435002F00F011813B78002A40F00A81D5
:10298000002B00F01C8147F6FE733A4601E0013B44
:1029900003D412F8011F0029F9D1D21B4FF02008EF
:1029A000A41A02F1FF395BD4BCF1000F68D1C4F165
:1029B000000B002C63D03B782D2B03D1B8F1300FE6
:1029C00000F0F080DAF80030414650469B689847A6
:1029D0001BF1010BF6D1009BB9F1000F23440093CA
:1029E000FFF601AF5C46CB46DAF800300BF1FF3B57
:1029F00017F8011B50469B689847BBF1FF3FF3D186
:102A0000009B01334B440093002C3FF4ECAE27466F
:102A1000DAF80030414650469B689847013FF7D1AD
:102A2000009B2344741C0093019B002B7FF4E0AEB9
:102A3000009806B0BDE8F04F03B07047312D000894
:102A4000B0090020337801932B6806AF04354FF0AE
:102A5000000901224FF0200807F80C3DA41AA3D565
:102A6000B9F1000FFFF6BFAE0024BCE73378019345
:102A700006AF4FF00009012207F80C1DEEE75C4697
:102A8000B9F1000FAFDABFE761784FF030080134D9
:102A9000BBE6B41CB1784FF0010CB1E64FF00A0E62
:102AA000192B34D92F680435337801930DF11701B0
:102AB00000E00146481EB7FBFEF20EFB12791746F6
:102AC00009F13003392BC8BF09F13703DBB201F834
:102AD000013C002AEDD10DF1170203AF121ABE46D8
:102AE000104401E011F8013B88420EF8013BF9D196
:102AF00002F1FF39B2E74FF0080E2F680435D5E731
:102B00004FF00A0EF9E7192B4FF0080ECAD83378A8
:102B10000193F2E7192B2ED929680435337800295F
:102B200001932EDB03AF3A4602F10B0B5846264BBE
:102B3000A3FB01E3DB0803EB83099E46A1EB4903FA
:102B400071463033DBB200F8013D0029EFD1ABEB29
:102B50000001114401E010F8013F02F8013B8A42F4
:102B6000F9D1D21B02F1FF3978E74FF0100EC4E71C
:102B70004FF0100E94E7337801932968043500294B
:102B8000D0DA4FF02D0349420DF10D0203AF8DF85D
:102B90000C30C9E79BB1531EF7E60AB947F6FF723E
:102BA0000A4FF8E7009A2D21DAF80030504601323A
:102BB00001379B6809F1FF390092984702E74FF00F
:102BC000FF394FF02008EFE6CDCCCCCC842D0008A7
:102BD0009C2D00081000022010000220100002208E
:102BE0009C2D0008000002200000022000000220AE
:102BF0009C2D000800C0072000C0072000C007204F
:102C00009C2D0008200A0020200A0020200A002015
:102C10009C2D0008000000000000000000000000E3
:102C20009C2D00080040024000400240004002404D
:102C30009C2D0008000000000000000000000000C3
:102C40009C2D0008000000000000000000000000B3
:102C50000000000000000000000000000000000074
:102C60000000000000000000000000000000000064
:102C70000000000000000000160000007126200087
:102C80000000000000000000000000000000000044
:102C90000000000000000000000000000000000034
:102CA0000000000000000000000000000000000024
:102CB0000000000000000000000000000000000014
:102CC0000000000000000000000000000000000004
:102CD00000000000000000000000000000000000F4
:102CE00000000000000000000000000000000000E4
:102CF00000000000000000000000000000000000D4
:102D000000000000000000000000000000000000C3
:102D10006D61696E00160020040244080C1014183E
:102D20001C2021220000000069646C650000000086
:102D30005469636B733A28256429095475726E6F60
:102D40007665723A282564290944697374616E6353
:102D5000653A282564290953706565643A28256415
:102D6000290A0D00C1182000211A20004119200055
:102D7000911A200031192000811A2000B11820007A
:0C2D8000111A2000286E756C6C290000F0
:102D8C0010270000112620000000000000000000A9
:0400000500200201D4
:00000001FF
