:020000040800F2
:100000000004002001022000811B2000811B200031
:10001000811B2000811B2000811B2000811B2000F0
:10002000811B2000811B2000811B20001118200053
:10003000811B2000811B2000811B200081112000DA
:10004000811B20000116200011152000E114200062
:10005000811B2000811B2000E1172000B117200028
:10006000811720005117200021172000B114200013
:10007000811420005114200021142000F1132000CD
:10008000C113200091132000811B2000811B200040
:10009000811B2000811B2000811B2000B116200045
:1000A000811B200041112000811B2000811B2000AA
:1000B000811B200001112000C1102000811B2000A5
:1000C000811B2000811B2000811B2000811B200040
:1000D000811B2000811B2000811B2000811B200030
:1000E00031162000D1152000A1152000811B200011
:1000F000811B2000811B2000811B20006113200038
:10010000811B2000811B2000811B2000811B2000FF
:10011000811B2000511B200081102000811B20002A
:100120003113200001132000D1122000A112200061
:1001300071122000811B200071152000811B2000FE
:10014000811B2000811B2000811B2000811B2000BF
:100150004112200011122000E1112000311B20006B
:10016000811B2000811B2000811B2000811B20009F
:1001700041152000811B2000811B2000811B2000D5
:10018000811B2000811B2000111B2000811B2000EF
:10019000811B2000811B2000811B2000811B20006F
:1001A000811B2000811B2000811B2000811B20005F
:1001B000811B2000811B2000811B2000811B20004F
:1001C000811B2000811B2000811B2000811B20003F
:1001D000811B2000811B2000811B2000811B20002F
:1001E000811B2000811B2000811B2000811B20001F
:1001F000811B2000811B2000811B2000811B20000F
:1002000072B6264880F3098825484EF60851CEF28A
:1002100000010860022080F31488BFF36F8F02F0A2
:1002200047F801F075FE4FF055301E491E4A9142C5
:100230003CBF41F8040BFAE71C49184A91423CBF05
:1002400041F8040BFAE71A491A4A1B4B9A423EBF7F
:1002500051F8040B42F8040BF8E700201749184A3C
:1002600091423CBF41F8040BFAE701F0E1FF02F0D4
:1002700017F8144C144DAC4203DA54F8041B8847A9
:10028000F9E702F055F8114C114DAC4203DA54F87D
:10029000041B8847F9E701F0FBBF000000080020BD
:1002A00000002000000000200004002000040020C6
:1002B0007031000800000220100002200008002019
:1002C000000C00200002200000022000000220009C
:1002D000000220002DE9F04FC1F80CD0D0F80CD06E
:1002E000BDE8F08F002383F311882846A047002043
:1002F00001F056FF01F07CFF00DFFEE781F00041D6
:1003000002E000BF83F0004330B54FEA41044FEAFA
:10031000430594EA050F08BF90EA020F1FBF54EA95
:10032000000C55EA020C7FEA645C7FEA655C00F031
:10033000E2804FEA5454D4EB5555B8BF6D420CDD02
:100340002C4480EA020281EA030382EA000083EA85
:10035000010180EA020281EA0303362D88BF30BD25
:1003600011F0004F4FEA01314FF4801C4CEA11317B
:1003700002D0404261EB410113F0004F4FEA0333DA
:100380004CEA133302D0524263EB430394EA050F65
:1003900000F0A780A4F10104D5F1200E0DDB02FAD4
:1003A0000EFC22FA05F2801841F1000103FA0EF268
:1003B000801843FA05F359410EE0A5F120050EF12E
:1003C000200E012A03FA0EFC28BF4CF0020C43FA5F
:1003D00005F3C01851EBE37101F0004507D54FF06C
:1003E000000EDCF1000C7EEB00006EEB0101B1F5BC
:1003F000801F1BD3B1F5001F0CD349085FEA300002
:100400004FEA3C0C04F101044FEA445212F5800F0C
:1004100080F09A80BCF1004F08BF5FEA500C50F1A9
:10042000000041EB045141EA050130BD5FEA4C0C8C
:10043000404141EB010111F4801FA4F10104E9D115
:1004400091F0000F04BF01460020B1FA81F308BF0C
:100450002033A3F10B03B3F120020CDA0C3208DDD8
:1004600002F1140CC2F10C0201FA0CF021FA02F1B3
:100470000CE002F11402D8BFC2F1200C01FA02F123
:1004800020FA0CFCDCBF41EA0C019040E41AA2BF48
:1004900001EB0451294330BD6FEA04041F3C1CDA10
:1004A0000C340EDC04F11404C4F1200220FA04F030
:1004B00001FA02F340EA030021FA04F345EA0301DA
:1004C00030BDC4F10C04C4F1200220FA02F001FA9C
:1004D00004F340EA0300294630BD21FA04F029461E
:1004E00030BD94F0000F83F4801306BF81F48011B7
:1004F0000134013D4EE77FEA645C18BF7FEA655C2A
:1005000029D094EA050F08BF90EA020F05D054EAFB
:10051000000C04BF1946104630BD91EA030F1EBF00
:100520000021002030BD5FEA545C05D14000494104
:1005300028BF41F0004130BD14F580043CBF01F5F7
:10054000801130BD01F0004545F0FE4141F47001DD
:100550004FF0000030BD7FEA645C1ABF19461046B8
:100560007FEA655C1CBF0B46024650EA013406BFB9
:1005700052EA033591EA030F41F4002130BD00BF78
:1005800090F0000F04BF0021704730B54FF4806435
:1005900004F132044FF000054FF0000150E700BFB6
:1005A00090F0000F04BF0021704730B54FF4806415
:1005B00004F1320410F0004548BF40424FF0000102
:1005C0003EE700BF42004FEAE2014FEA31014FEA45
:1005D00002701FBF12F07F4393F07F4F81F0605194
:1005E000704792F0000F14BF93F07F4F704730B503
:1005F0004FF4607401F0004521F0004120E700BF96
:1006000050EA010208BF704730B54FF000050AE01C
:1006100050EA010208BF704730B511F0004502D51D
:10062000404261EB41014FF4806404F132045FEA1F
:10063000915C3FF4DCAE4FF003025FEADC0C18BFC4
:1006400003325FEADC0C18BF033202EBDC02C2F1BA
:10065000200300FA03FC20FA02F001FA03FE40EA4C
:100660000E0021FA02F11444C1E600BF70B54FF04C
:10067000FF0C4CF4E06C1CEA11541DBF1CEA13552E
:1006800094EA0C0F95EA0C0F00F0DEF82C4481EA96
:10069000030621EA4C5123EA4C5350EA013518BFB6
:1006A00052EA033541F4801143F4801338D0A0FBA3
:1006B00002CE4FF00005E1FB02E506F00042E0FB50
:1006C00003E54FF00006E1FB03569CF0000F18BF56
:1006D0004EF0010EA4F1FF04B6F5007F64F54074FE
:1006E00004D25FEA4E0E6D4146EB060642EAC62191
:1006F00041EA55514FEAC52040EA5E504FEACE2EFE
:10070000B4F1FD0C88BFBCF5E06F1ED8BEF1004F00
:1007100008BF5FEA500E50F1000041EB045170BD7C
:1007200006F0004646EA010140EA020081EA0301C0
:10073000B4EB5C04C2BFD4EB0C0541EA045170BDBC
:1007400041F480114FF0000E013C00F3AB8014F136
:10075000360FDEBF002001F0004170BDC4F100047F
:10076000203C35DA0C341BDC04F11404C4F1200500
:1007700000FA05F320FA04F001FA05F240EA02005B
:1007800001F0004221F0004110EBD37021FA04F691
:1007900042EB06015EEA430E08BF20EAD37070BD4B
:1007A000C4F10C04C4F1200500FA04F320FA05F0AA
:1007B00001FA04F240EA020001F0004110EBD370AC
:1007C00041F100015EEA430E08BF20EAD37070BD1C
:1007D000C4F1200500FA05F24EEA020E20FA04F3F5
:1007E00001FA05F243EA020321FA04F001F00041A4
:1007F00021FA04F220EA020000EBD3705EEA430E15
:1008000008BF20EAD37070BD94F0000F0FD101F043
:100810000046400041EB010111F4801F08BF013C7C
:10082000F7D041EA060195F0000F18BF704703F0BA
:100830000046520043EB030313F4801F08BF013D41
:10084000F7D043EA0603704794EA0C0F0CEA1355FD
:1008500018BF95EA0C0F0CD050EA410618BF52EAB7
:100860004306D1D181EA030101F000414FF00000BD
:1008700070BD50EA410606BF1046194652EA4306CB
:1008800019D094EA0C0F02D150EA013613D195EA3F
:100890000C0F05D152EA03361CBF104619460AD187
:1008A00081EA030101F0004141F0FE4141F4700191
:1008B0004FF0000070BD41F0FE4141F4780170BD81
:1008C00070B54FF0FF0C4CF4E06C1CEA11541DBFE6
:1008D0001CEA135594EA0C0F95EA0C0F00F0A7F8E8
:1008E000A4EB050481EA030E52EA03354FEA013115
:1008F00000F088804FEA03334FF0805545EA131328
:1009000043EA12634FEA022245EA111545EA1065EF
:100910004FEA00260EF000419D4208BF964244F186
:10092000FD0404F5407402D25B084FEA3202B61AA5
:1009300065EB03055B084FEA32024FF480104FF479
:10094000002CB6EB020E75EB030E22BFB61A7546ED
:1009500040EA0C005B084FEA3202B6EB020E75EB80
:10096000030E22BFB61A754640EA5C005B084FEAE8
:100970003202B6EB020E75EB030E22BFB61A7546B5
:1009800040EA9C005B084FEA3202B6EB020E75EBC0
:10099000030E22BFB61A754640EADC0055EA060E81
:1009A00018D04FEA051545EA16754FEA06164FEAC4
:1009B000C30343EA52734FEAC2025FEA1C1CC0D170
:1009C00011F4801F0BD141EA00014FF000004FF0FD
:1009D000004CB6E711F4801F04BF01430020B4F1BE
:1009E000FD0C88BFBCF5E06F3FF6AFAEB5EB030C76
:1009F00004BFB6EB020C5FEA500C50F1000041EB73
:100A0000045170BD0EF0004E4EEA113114EB5C043F
:100A1000C2BFD4EB0C0541EA045170BD41F4801112
:100A20004FF0000E013C90E645EA060E8DE60CEA1A
:100A3000135594EA0C0F08BF95EA0C0F3FF43BAF37
:100A400094EA0C0F0AD150EA01347FF434AF95EAEE
:100A50000C0F7FF425AF104619462CE795EA0C0FD2
:100A600006D152EA03353FF4FDAE1046194622E79F
:100A700050EA410618BF52EA43067FF4C5AE50EA79
:100A800041047FF40DAF52EA43057FF4EBAE12E769
:100A90004FEA4102B2F1E04324BFB3F5001CDCF1A0
:100AA000FE5C0DD901F0004C4FEAC0024CEA5070D8
:100AB000B2F1004F40EB830008BF20F00100704707
:100AC00011F0804F21D113F13872BCBF01F000400A
:100AD000704741F480114FEA5252C2F11802C2F13C
:100AE000200C10FA0CF320FA02F018BF40F00100BD
:100AF0004FEAC1234FEAD32303FA0CFC40EA0C006F
:100B000023FA02F34FEA4303CCE77FEA625307D1AB
:100B100050EA01331EBF4FF0FE4040F440007047E2
:100B200001F0004040F0FE4040F40000704700BF7C
:100B300080F0004002E000BF81F0004142001FBF92
:100B40005FEA410392EA030F7FEA226C7FEA236C9B
:100B50006AD04FEA1262D2EB1363C1BFD218414090
:100B600048404140B8BF5B42192B88BF704710F026
:100B7000004F40F4000020F07F4018BF404211F0C9
:100B8000004F41F4000121F07F4118BF494292EA31
:100B9000030F3FD0A2F1010241FA03FC10EB0C005D
:100BA000C3F1200301FA03F100F0004302D54942EA
:100BB00060EB4000B0F5000F13D3B0F1807F06D397
:100BC00040084FEA310102F10102FE2A51D2B1F18F
:100BD000004F40EBC25008BF20F0010040EA030084
:100BE0007047490040EB000010F4000FA2F1010231
:100BF000EDD1B0FA80FCACF1080CB2EB0C0200FABB
:100C00000CF0AABF00EBC25052421843BCBFD04008
:100C10001843704792F0000F81F4000106BF80F482
:100C200000000132013BB5E74FEA41037FEA226C45
:100C300018BF7FEA236C21D092EA030F04D092F010
:100C4000000F08BF0846704790EA010F1CBF002044
:100C5000704712F07F4F04D1400028BF40F00040A1
:100C6000704712F100723CBF00F50000704700F0C1
:100C7000004343F0FE4040F4000070477FEA2262E8
:100C800016BF08467FEA23630146420206BF5FEAB9
:100C9000412390EA010F40F4800070474FF00003B9
:100CA00004E000BF10F0004348BF40425FEA000C80
:100CB00008BF704743F0964301464FF000001CE028
:100CC00050EA010208BF70474FF000030AE000BF7E
:100CD00050EA010208BF704711F0004302D54042BC
:100CE00061EB41015FEA010C02BF8446014600202E
:100CF00043F0B64308BFA3F18053A3F50003BCFA49
:100D00008CF2083AA3EBC25310DB01FA02FC6344F5
:100D100000FA02FCC2F12002BCF1004F20FA02F2FC
:100D200043EB020008BF20F00100704702F12002EF
:100D300001FA02FCC2F1200250EA4C0021FA02F250
:100D400043EB020008BF20EADC7070474FF0FF0C55
:100D50001CEAD0521EBF1CEAD15392EA0C0F93EA50
:100D60000C0F6FD01A4480EA010C400218BF5FEAF2
:100D700041211ED04FF0006343EA501043EA511165
:100D8000A0FB01310CF00040B1F5000F3EBF49005F
:100D900041EAD3715B0040EA010062F17F02FD2A63
:100DA0001DD8B3F1004F40EBC25008BF20F0010046
:100DB000704790F0000F0CF0004C08BF49024CEA5D
:100DC000502040EA51207F3AC2BFD2F1FF0340EAEF
:100DD000C250704740F400004FF00003013A5DDC60
:100DE00012F1190FDCBF00F000407047C2F10002A1
:100DF000410021FA02F1C2F1200200FA02FC5FEA8E
:100E0000310040F1000053EA4C0308BF20EADC70D7
:100E1000704792F0000F00F0004C02BF400010F449
:100E2000000F013AF9D040EA0C0093F0000F01F0F6
:100E3000004C02BF490011F4000F013BF9D041EA18
:100E40000C018FE70CEAD15392EA0C0F18BF93EA1A
:100E50000C0F0AD030F0004C18BF31F0004CD8D144
:100E600080EA010000F00040704790F0000F17BFCB
:100E700090F0004F084691F0000F91F0004F14D011
:100E800092EA0C0F01D142020FD193EA0C0F03D169
:100E90004B0218BF084608D180EA010000F000406C
:100EA00040F0FE4040F40000704740F0FE4040F447
:100EB000400070474FF0FF0C1CEAD0521EBF1CEAE6
:100EC000D15392EA0C0F93EA0C0F69D0A2EB030204
:100ED00080EA010C49024FEA402037D04FF080539E
:100EE00043EA111143EA10130CF000408B4238BF63
:100EF0005B0042F17D024FF4000C8B4224BF5B1A71
:100F000040EA0C00B3EB510F24BFA3EB510340EABE
:100F10005C00B3EB910F24BFA3EB910340EA9C006C
:100F2000B3EBD10F24BFA3EBD10340EADC001B01DC
:100F300018BF5FEA1C1CE0D1FD2A3FF650AF8B4280
:100F400040EBC25008BF20F0010070470CF0004C8D
:100F50004CEA50207F32C2BFD2F1FF0340EAC250B8
:100F6000704740F400004FF00003013A37E792F079
:100F7000000F00F0004C02BF400010F4000F013AD7
:100F8000F9D040EA0C0093F0000F01F0004C02BFD2
:100F9000490011F4000F013BF9D041EA0C0195E73B
:100FA0000CEAD15392EA0C0F08D142027FF47DAFD4
:100FB00093EA0C0F7FF470AF084676E793EA0C0FC4
:100FC00004D14B023FF44CAF08466EE730F0004CC2
:100FD00018BF31F0004CCAD130F000427FF45CAF52
:100FE00031F000437FF43CAF5FE700BF000000003A
:100FF000024A136843F08003136070470078004092
:10100000024A136843F080031360704700140140E4
:10101000024A136843F08003136070470050004099
:10102000202383F31188114B5B6813F4006302D112
:1010300083F31188704780B400AFEFF309834FF05A
:101040008071A3F1200243F8041C82F30988084A46
:10105000116892698968926891428CBF054A064A74
:1010600043F8082CBD4680BC704700BF00ED00E08F
:101070009C090020F5022000F8022000000000007A
:1010800008B50B4B00211878DA680428116107D1E4
:101090000220187011601161D16821F0FF01D16048
:1010A0005B6803485B689847BDE80840FFF7B8BF36
:1010B00068080020000000000000000000000000A0
:1010C00008B50B4B00211878DA680428116107D1A4
:1010D0000220187011601161D16821F0FF01D16008
:1010E0005B6803485B689847BDE80840FFF798BF16
:1010F0005808002000000000000000000000000070
:1011000008B50B4B00211878DA680428116107D163
:101110000220187011601161D16821F0FF01D160C7
:101120005B6803485B689847BDE80840FFF778BFF5
:10113000480800200000000000000000000000003F
:1011400008B50B4B00211878DA680428116107D123
:101150000220187011601161D16821F0FF01D16087
:101160005B6803485B689847BDE80840FFF758BFD5
:10117000380800200000000000000000000000000F
:10118000F8B5202787F31188124DEA8C2E460132DC
:1011900056F81C3F92B2B342EA8413D01C89013C3A
:1011A000A4B21C8174B91A68D968DC605660EA611F
:1011B00084F311881869884787F31188EB691A89C5
:1011C000002AF0D0002383F31188BDE8F840FFF730
:1011D00027BF00BF9C0900200000000000000000A5
:1011E000084B09485968826F890D01F03D0110B51F
:1011F0008C05DC600AB1C06F9047BDE81040FFF776
:101200000FBF00BF00640240080B00200000000078
:10121000084B09485968026F090C01F03D0110B5EF
:101220000C04DC600AB1406F9047BDE81040FFF746
:10123000F7BE00BF00640240080B00200000000061
:10124000084B09485968826E890901F03D0110B5C3
:101250008C01DC600AB1C06E9047BDE81040FFF71A
:10126000DFBE00BF00640240080B00200000000049
:1012700008B5074B07485968026E01F03D01D96077
:101280000AB1406E9047BDE80840FFF7C9BE00BFF5
:1012900000640240080B0020000000000000000075
:1012A000084B09481968826D890D01F03D0110B5A0
:1012B0008C059C600AB1C06D9047BDE81040FFF7F7
:1012C000AFBE00BF00640240080B00200000000019
:1012D000084B09481968026D090C01F03D0110B571
:1012E0000C049C600AB1406D9047BDE81040FFF7C8
:1012F00097BE00BF00640240080B00200000000001
:10130000084B09481968826C890901F03D0110B544
:101310008C019C600AB1C06C9047BDE81040FFF79B
:101320007FBE00BF00640240080B002000000000E8
:1013300008B5074B07481968026C01F03D01996038
:101340000AB1406C9047BDE80840FFF769BE00BF96
:1013500000640240080B00200000000000000000B4
:10136000084B09485968826B890D01F03D0110B5A1
:101370008C05DC600AB1C06B9047BDE81040FFF7F8
:101380004FBE00BF00600240080B002000000000BC
:10139000084B09485968026B090C01F03D0110B572
:1013A0000C04DC600AB1406B9047BDE81040FFF7C9
:1013B00037BE00BF00600240080B002000000000A4
:1013C000084B09485968826A890901F03D0110B546
:1013D0008C01DC600AB1C06A9047BDE81040FFF79D
:1013E0001FBE00BF00600240080B0020000000008C
:1013F00008B5074B07485968026A01F03D01D960FA
:101400000AB1406A9047BDE80840FFF709BE00BF37
:1014100000600240080B00200000000000000000F7
:10142000084B094819688269890D01F03D0110B522
:101430008C059C600AB1C0699047BDE81040FFF779
:10144000EFBD00BF00600240080B0020000000005C
:10145000084B094819680269090C01F03D0110B5F3
:101460000C049C600AB140699047BDE81040FFF74A
:10147000D7BD00BF00600240080B00200000000044
:10148000084B094819688268890901F03D0110B5C7
:101490008C019C600AB1C0689047BDE81040FFF71E
:1014A000BFBD00BF00600240080B0020000000002C
:1014B00008B5074B074A196801F03D0199601368A8
:1014C0000BB150689847BDE80840FFF7A9BD00BFC1
:1014D00000600240080B0020000000000000000037
:1014E000094A08B5536911680B4003F4800353613E
:1014F0002BB1064816214368D3F8B4309847BDE8AD
:101500000840FFF78DBD00BF003C01402C080020C3
:10151000094A08B5536911680B4003F4001353617D
:101520002BB1064815214368D3F8AC309847BDE885
:101530000840FFF775BD00BF003C01402C080020AB
:10154000094A08B5536911680B4003F480135361CD
:101550002BB1064814214368D3F8A4309847BDE85E
:101560000840FFF75DBD00BF003C01402C08002093
:10157000094A08B5536911680B4003F4002353610D
:101580002BB1064813214368D3F89C309847BDE837
:101590000840FFF745BD00BF003C01402C0800207B
:1015A000094A08B5536911680B4003F4802353615D
:1015B0002BB1064812214368D3F894309847BDE810
:1015C0000840FFF72DBD00BF003C01402C08002063
:1015D000094A08B5536911680B4003F4003353619D
:1015E0002BB1064811214368D3F88C309847BDE8E9
:1015F0000840FFF715BD00BF003C01402C0800204B
:10160000094A08B5536911680B4003F480335361EC
:101610002BB1064810214368D3F884309847BDE8C1
:101620000840FFF7FDBC00BF003C01402C08002033
:101630001D4B10B55C691A68144004F47C425A6171
:1016400062052AD4230522D4E0041AD4A10412D4BA
:1016500062040AD4230404D514480F214368DB6FC5
:101660009847BDE81040FFF7DBBC10480E214368E7
:101670005B6F9847EEE70D480D214368DB6E984796
:10168000E6E70A480C2143685B6E9847DEE70748A7
:101690000B214368DB6D9847D6E704480A2143686D
:1016A0005B6D9847CEE700BF003C01402C0800204E
:1016B000194B10B55C691A68144004F478725A61C9
:1016C000A30622D460061AD4210612D4E2050AD455
:1016D000A30504D5114809214368DB6C9847BDE890
:1016E0001040FFF79DBC0D48082143685B6C98478C
:1016F000EEE70A4807214368DB6B9847E6E70748AF
:10170000062143685B6B9847DEE704480521436880
:10171000DB6A9847D6E700BF003C01402C08002058
:10172000084A08B5536911680B4003F01003536170
:1017300023B10548042143685B6A9847BDE8084027
:10174000FFF76EBC003C01402C08002000000000A8
:10175000084A08B5536911680B4003F00803536148
:1017600023B1054803214368DB699847BDE8084079
:10177000FFF756BC003C01402C0800200000000090
:10178000084A08B5536911680B4003F0040353611C
:1017900023B10548022143685B699847BDE80840CA
:1017A000FFF73EBC003C01402C0800200000000078
:1017B000084A08B5536911680B4003F002035361EE
:1017C00023B1054801214368DB689847BDE808401C
:1017D000FFF726BC003C01402C0800200000000060
:1017E000084A08B5536911680B4003F001035361BF
:1017F00023B10548002143685B689847BDE808406D
:10180000FFF70EBC003C01402C0800200000000047
:1018100080B400AFEFF30983203383F309880023FA
:1018200083F31188BD4680BC704700BF00000000F4
:1018300070B4202383F311880D4E4A1E4D420D4C87
:10184000336802442468013B2A4058182840231A70
:101850009A4206D802440023326083F3118870BC98
:1018600070470020002383F3118870BC704700BFCD
:10187000900B0020880B00200000000000000000FA
:10188000202383F3118890F82030072B0ED8DFE84F
:1018900003F0280D0D2408040D08426A93680133F3
:1018A000936090E80C001A6002685360002281681F
:1018B0000E4B80F8202010B44FF0FF3444621B68B8
:1018C0009A688A42FBD25A68002103604260106025
:1018D000586081F3118810BC7047436A00221A6077
:1018E000E4E7002383F31188704700BF9C090020C0
:1018F00010B400220446084B816880F820201B6841
:101900009A688A42FBD25A6820462360626014605B
:101910005C6010BC704700BF9C0900200000000004
:10192000F8B50468A04222D00D460746002602E022
:101930002468A7421BD0E3682B43E36015B12269FA
:101940001342F5D06068A368416B90F820200B43E8
:101950000A2A43630CD00B2AEAD1426A32EA030313
:10196000E6D14662FFF7C4FF2468A742E3D1F8BD81
:10197000426A1342DCD04662FFF7BAFFF4E700BFC9
:101980002DE9F041466D04463768F5692A0735624E
:1019900054D1EB0546D4A80617D4390601D52A063A
:1019A00068D46B060FD5202383F31188626CA36C77
:1019B0009A4200F0898027F040070023376083F3C4
:1019C0001188BDE8F081BDE8F081202383F3118800
:1019D000726A94F85C80636908EA0208002B7CD084
:1019E000236A04F10C01626A93427BD06269581C3D
:1019F00001322062626183F80080226AE3699A42C0
:101A00005FD2E368994209D01A684FF0000E184679
:101A1000E2605160C3F824E0FFF76AFF002383F31C
:101A20001188BAE7202383F311884FF40071201D39
:101A3000FFF776FF002383F31188ACE715F0080F5A
:101A40000CBF00218021EB074FF0200348BF41F07D
:101A50002001A80748BF41F040016A0748BF41F490
:101A6000807183F31188201DFFF75AFF002383F351
:101A700011888EE7202383F31188A36C04F1300EC4
:101A8000626C9A4237D0A26B581C216C0132A06460
:101A90008842A26393F8008001D3E36BA364236BB5
:101AA0009E4508D01A68002118462263C2F804E057
:101AB0005962FFF71DFFC6F82880002383F31188C1
:101AC0006FE7A36923629CE7A36B002B3FF473AF1E
:101AD000201D1021FFF724FF6DE704216018FFF798
:101AE0001FFF7DE76269002A80D04FF48061201DCE
:101AF000FFF716FF92E7A26B002AC4D00821201D31
:101B0000FFF70EFF27F0C00343F040033360D4E734
:101B100008B50348FFF734FFBDE80840FFF780BA77
:101B20003C09002000000000000000000000000050
:101B300008B50348FFF724FFBDE80840FFF770BA77
:101B4000DC08002000000000000000000000000091
:101B500008B50348FFF714FFBDE80840FFF760BA77
:101B60007C080020000000000000000000000000D1
:101B7000FEE700BF000000000000000000000000C1
:101B8000FEE700BF000000000000000000000000B1
:101B9000084B1A68996930B481F82000012514684F
:101BA000104663601C6082F820509A6130BCFEF7DA
:101BB00091BB00BF9C090020000000000000000055
:101BC000002943D0426870B5224C4FF6FF7586B0AD
:101BD000A369A94283E80500136043602FD0E2693E
:101BE000A56913891C4899420595049005D9CB1A1B
:101BF000126899B213898B42F9D3556801AB0192EF
:101C00004FF6FF76029504202B605360ADF80C1060
:101C100013895B1A1381A684FFF7BAFF049B53B1A3
:101C2000019BBDF80C001A89029902441A810B60CD
:101C3000019B5960A684A369586A06B070BD042050
:101C4000FFF7A6FFA369586A06B070BD4FF0FF30DA
:101C5000704700BF9C090020811820000000000090
:101C60002DE9F04F994683B004460E461546D0F84C
:101C70001C80202383F31188264B09F1FF3A0027AB
:101C8000DB8C1FFA8AFA19FA83F39BB20193A368DB
:101C900013B3616906F1010BA368481C013B606145
:101CA000A36033780B7061692369994201D3E368BB
:101CB0006361B8F1000F01D02046C047002383F3D1
:101CC0001188013D07F1010719D0202383F3118802
:101CD000A3685E46002BDCD14FF6FD72924512D808
:101CE0000C4AD18C019A511A89B2894505D32046F4
:101CF000FFF766FF0028CAD0002383F31188384617
:101D000003B0BDE8F08F49462046FFF759FF002891
:101D1000BDD0F1E79C090020000000000000000099
:101D20003030FFF79DBF00BF000000000000000042
:101D300030304FF6FF73FFF793BF00BF0000000085
:101D4000F8B504460F461646202383F3118803E0B6
:101D5000FFF736FF002819DBA56831462046002D25
:101D6000F6D06269A368511C013B6161A3601770E2
:101D7000626923699A4201D3E3686361E3690BB145
:101D800020469847002080F31188F8BD85F311881C
:101D9000F8BD00BF000000000000000000000000CF
:101DA0003030FFF7CDBF00BF000000000000000092
:101DB00030304FF6FF72FFF7C3BF00BF00000000D6
:101DC0002DE9F04F994683B004460E461546D0F8EB
:101DD0001C80202383F31188264B09F1FF3A00274A
:101DE000DB8C1FFA8AFA19FA83F39BB20193A3687A
:101DF00013B3A16906F1010BA368481C013BA06164
:101E0000A3600B783370A1692369994201D3E36819
:101E1000A361B8F1000F01D02046C047002383F32F
:101E20001188013D07F1010719D0202383F31188A0
:101E3000A3685E46002BDCD14FF6FD72924512D8A6
:101E40000C4AD18C019A511A89B2894505D3204692
:101E5000FFF7B6FE0028CAD0002383F31188384666
:101E600003B0BDE8F08F49462046FFF7A9FE0028E1
:101E7000BDD0F1E79C090020000000000000000038
:101E80000C30FFF79DBF00BF000000000000000005
:101E90000C304FF6FF73FFF793BF00BF0000000048
:101EA00070B5202304460E4683F3118803E0FFF744
:101EB00087FE002819DBA56831462046002DF6D0A4
:101EC000A169A3684A1C2069013B8242A261A36008
:101ED0000D7801D3E368A361E3690BB1204698470D
:101EE000002383F31188284670BD85F3118870BDE7
:101EF0000C30FFF7D5BF00BF00000000000000005D
:101F00000C304FF6FF71FFF7CBBF00BF00000000A1
:101F100030B4334B4FF44040324A334C19461C64C2
:101F200010601A6842F001021A600B689B07FCD52A
:101F30008B682B4A23F003038B608B688B6093685C
:101F400013F00C03FBD11068254900F0F900106074
:101F50009360136843F4A02313600B689D03FCD5C2
:101F6000224B20484B600B6843F080730B60436842
:101F70005C04FCD503681B4A43F480330360536858
:101F8000D903FCD51368174943F4003313604B6839
:101F90009A03FCD5124A13689B01FCD5144B40F2FE
:101FA0000931144D40F2022400209560C2F88C40A3
:101FB000C2F8900019609368094943F002039360E6
:101FC0008B6803F00C03082BFAD14B6C43F480436D
:101FD0004B644B6E43F4804330BC4B66704700BF8C
:101FE000003802400070004000040010086C4009F6
:101FF000003C024000949930000000000000000006
:10200000CB684A68F0B40E6840F22D148D6843F036
:102010000101836D4FF0FF3745F040051443B3FBDA
:10202000F6F6436DDE605D6099601C601F625305CB
:1020300005D512F010220AD0B2F1805F03D080F8EB
:102040005C70F0BC70473F2380F85C30F9E77F2379
:1020500080F85C30F5E700BF0000000000000000E1
:102060002DE9F04F02F00309C2F38008C2F3C10C5E
:10207000C2F3411E00264F46C2F3C3124FF00F0AAF
:102080000EE0036A23EA040425430562490847D0A9
:102090004FEA480801364FEA8C0C4FEA8E0EBF001B
:1020A000CB07F3D50123456806F00704B9F1020F09
:1020B00003FA06FB06FA03F34FEA840425EA0B0B46
:1020C0004FF003054BEA080B05FA03F302FA04F597
:1020D0000AFA04F4C0F804B06FEA0303D0F808B0B9
:1020E0000BEA030B4BEA0C0BC0F808B0D0F80CB0AD
:1020F00003EA0B0B4BEA0E0BC0F80CB012D0D0F871
:1021000000B0072E03EA0B0343EA07030360B8D9C4
:10211000436A490823EA040445EA04054562B7D145
:10212000BDE8F08F072E0AD8D0F820B02BEA0404BF
:1021300025430562046823403B430360A6E7D0F8CB
:1021400024B02BEA040425434562F3E700000000B5
:102150000E4B82685B680E499B1A426830B40C6F64
:10216000C1681B1B01318360C160D0E90445E418DC
:1021700045F100059342026888BF43609342C0E97D
:10218000044538BF036030BC704700BF001000E05A
:102190009C0900200000000000000000000000007A
:1021A00038B52022034682F31188104A946904F15D
:1021B0002805A06A6362854206D00368A362FFF720
:1021C00097FBA06AA842F8D194F8223043B994F85A
:1021D00021309B0704D1226963691A612269536126
:1021E0000F20BDE83840FFF7D3BC00BF9C0900209A
:1021F0000E4A0121106830B4036800259469136009
:102200005A6080F8201084F82050A168906100E0A6
:102210001B689A689142FBD35A682146236062602A
:1022200014605C6030BCFEF755B800BF9C0900200C
:10223000F0B5124F0026124D07F1800E114C124BD3
:1022400012499C4211D904391A4651F8040F42F838
:10225000040B9442F9D8DA43144424F00304043400
:1022600023449D4203D943F8046B9D42FBD81037A9
:10227000774502D297E83A00E3E7F0BDFC2E00086C
:1022800010000220100002201000022080310008FF
:10229000FEE700BF0000000000000000000000009A
:1022A000704700BF000000000000000000000000B8
:1022B000F0B5BFF34F8FBFF36F8F1B4C0022C4F8F4
:1022C0005022636943F400336361BFF34F8FBFF360
:1022D0006F8FC4F88420BFF34F8FD4F8803043F65B
:1022E000E07EC3F3C906C3F34E33B7075D0105EAC9
:1022F0000E003946324641EA0003013A01F14041FD
:10230000C4F86032531CF6D1203D15F1200FEED1F8
:10231000BFF34F8F636943F480336361BFF34F8F23
:10232000BFF36F8FF0BD00BF00ED00E000000000C4
:102330007D4C00254FF6FF714FF0FF3204F11C0376
:1023400000264FF6FF082DE9804889B00027246059
:1023500002A86460A184E361236202922461646143
:10236000A560E5842567039504950595CDE9066785
:1023700000F0BEFD02A8FFF7EBFE6C4B6C494FF07E
:10238000800E6C4A04F12C06196003F1100C6A49A6
:102390006A4F116001226A4984F84D500F60694903
:1023A0000498CF68206707EA08076748C4F834E054
:1023B000C4F868E03843DFF8BCE16769DFF8B8814A
:1023C00025669D61C3F810C0C3F814C004F1540C15
:1023D000276484F84E206566E463C4F844803E6157
:1023E00004F15807C860DEF80C009D6040F0807072
:1023F000DD606661A6612026C4F854C04FF0100C61
:10240000524BA56484F84C20CEF80C005048A765C8
:10241000E765C3F8B00F18681043186081F81FC053
:1024200081F8226085F3118862B686F31188494BE2
:1024300002266169C3F8982003F16C07C3F8CC2029
:1024400003F1900083F8B220434ADFF830E1C3F88B
:102450008C20424A83F8B06003F1BC06C3F8A41094
:1024600083F8B150C3F8C450C3F89C7003F1B807A7
:10247000C3F8A8201D67C3F8C850C3F8A040C3F82C
:10248000AC30C3F86CE00861A269C3F8B45091683D
:102490006061C3F8B870C3F8BC60C3F8C0600029BD
:1024A00000F0DE8483F8B0502468A1680029FBD1D5
:1024B000C3F890406268C3F894201060606081F3B4
:1024C0001188274B4FF0FF32264C18691A611961A9
:1024D00058695A615961186A60F08050186219622F
:1024E000586A5A625962226842F4807222601A6FF6
:1024F00002F44072B2F5807F03D04FF480321A6745
:102500001967174B1A6F184642F019021A67036FC2
:102510009B07FCD5134C002213486368134D23F42A
:102520000073134E63602DE09C090020E80A002030
:1025300031182000900B002010000220000008201D
:10254000880B002000ED00E00003FA05001000E019
:1025500055CEACC5100A0020E50220004831000825
:1025600000380240007000406030000810600240F7
:10257000080B0020F0ED00E014310008711B200072
:1025800050F80C5C2A600C3046F8312001311029DB
:10259000F6D14FF0FF3EDFF8B4A3CC4D40F2FF7010
:1025A000CB4C4FF6FF73C5F808E04BF67E7CC5F8C0
:1025B0000CE04FF43009C4F808E06FF0704BC4F839
:1025C0000CE04FF05537DAF83050DFF884830543DC
:1025D000C04CCAF83050DAF85060BF4D0643BF48CF
:1025E000CAF85060BE4E4260C0F808E0C660BD4EFA
:1025F00043610662BC4E4662BC4E066040F608204F
:10260000BB4E7260C6F808E00EF18A4E0EF1551E00
:102610000EF5A85EC6F80CE0DFF838E3C6F814C083
:102620004FF0010C3262C6F82490C6F800E0DFF8E3
:1026300028E3C6F80424C6F808B44FF00F0BC6F818
:102640000CE4DFF818E3C6F81434DFF81493C6F886
:1026500020E4C6F82424C6F800046FF44010C9F83A
:102660000420A44EC9F808007720C9F80C60DFF8F0
:10267000F4E2C9F81430A04EC9F82020C9F82400AB
:102680004FF42020C9F800004FF008607260C6F8CF
:1026900008E0F760DFF8D0E27361326272623260A4
:1026A000964ECEF80420CEF80860CEF80C70944E0A
:1026B000CEF81430CEF82020CEF82420CEF800201A
:1026C000DFF8A8E27260C6F808E0DFF8A4E2C6F816
:1026D0000CE0DFF8A0E273613262C6F824E0DFF8B4
:1026E00098E2306008F11800CEF80420CEF808B067
:1026F000DFF888B2834ECEF80CB0DFF884B2CEF8A3
:102700001430CEF82020CEF82420CEF80020CEF8C9
:102710000424CEF80824CEF80C74C8F81020CEF8A3
:102720001434C8F81420CEF82024C8F82020CEF89D
:102730002424C8F81800CEF80024C8F81C00CBF8F0
:1027400004207148CBF80820CBF80C70CBF814307B
:10275000CBF82020CBF82420CBF80020DFF824B2DF
:10276000CEF8042CC8F828B004F1300BCEF8082CB1
:102770004260CEF80C7CCEF8143C644F644BCEF82B
:10278000202C7A60CEF8242CFB60CEF8002CAEF51D
:10279000063E604B80F800C0C3F80CE088F800C02B
:1027A00087F800C083F800C05A605B4BDFF8D8E1BF
:1027B000A361636223621033C4F84CE0A646E36170
:1027C000564B5748E363A364636410334EF8040B1D
:1027D00004F10C002364534BC4F804E06365DFF894
:1027E000ACE1514BE06083F800C05A60C3F80CE0E4
:1027F0000EF5006E4D4B20616FF03F00C3F80CE00A
:10280000DFF88CE1626183F800C05A6084F808C088
:10281000A262C4F830B0C4F834B0AB46A163E4623D
:1028200024658EF835034248424BA0654FF40010F2
:10283000CEF88401CEF80400184610336A61A8610E
:10284000EB613D4B6862EB63AB646B6410332862F1
:102850002B643A4B3248EB64394B4BF8040B6FF066
:102860003F006B65374B85F808C0A963AA6286F8FC
:1028700008C005F10C0CED622D658EF84703AB65C1
:102880008023C5F804B04FF4802BCEF8883124485B
:10289000CEF808303346C5F80CC043F8040B05F1F8
:1028A0003000736006F10C03286368636FF03F002B
:1028B000F3603361244B7261C5F810C0B361B1633A
:1028C0008EF852031A48CEF888B163E000600240E7
:1028D000006402407C080020DC0800200000024068
:1028E00051550040B00B00B00AAA0A002880AE2A59
:1028F000000402405555505500100240FFCF3F00E4
:10290000001802403C0900202C0800203808002054
:102910000000014048080020940B0020C40B002058
:10292000503100080050004058080020680800207E
:1029300080F93703A40B0020D40B002001102000E5
:102940000014014000F36F06B40B00200038024071
:10295000000800200140001851505501B000BB0094
:10296000000C0240F3FFFFCF0014024000F0CC3C0B
:102970005555155100B0B000001C0240505555553A
:10298000002402402C3100081110200000080040F3
:1029900000E100E0DFF870C3CEF808B0B0650720B2
:1029A000DFF868E3DFF868B3CCF804E0CCF808207F
:1029B000CCF800006FF07F00DFF858E38BF82300BD
:1029C000BD480EF1100CDFF850B373623362BB4B9D
:1029D000F061B2629BF80000B94A736506F13003FA
:1029E0000190F6623665C6F83CE0C6F848E0C6F8E5
:1029F00044E0C6F840C0F26433637363002800F01B
:102A0000F581B04B93F80080B8F1000F6DD0202312
:102A100083F31188337A012B61D0AB49AB48FFF7C0
:102A2000EFFA02220023327283F31188202383F30A
:102A300011882B7A012B4CD0A349A548FFF7E0FA67
:102A4000022200232A7283F31188202383F3118842
:102A5000237A012B37D09C499E48FFF7D1FA0222F6
:102A60000023227283F311889B4C40F202424FF400
:102A700080719A48FFF7F4FA40F2024280219748A9
:102A8000FFF7EEFA204640F202424021FFF7E8FA53
:102A9000204640F202428021FFF7E2FA40F2024271
:102AA0004FF400518E48FFF7DBFA40F202424FF438
:102AB00080518B48FFF7D4FA8A4A102320211383D0
:102AC00011832383FEE7884A136C43F48013136455
:102AD000C1E7854A536C43F020035364ACE7824A54
:102AE000136C43F08043136497E7202383F311882A
:102AF0003B787E48012B786044D0BB680268002197
:102B0000D7F80CE04FF0020CD0F80880B3FBF2F3DA
:102B1000C268013BCEF800109BB222F0FF02CEF853
:102B2000048087F800C0CEF82830CEF81010CEF818
:102B30000C2081F311886E4A20230068A2FB00203C
:102B4000400983F311887B684FF0010EFA684FF05B
:102B5000030C5B6887F800C0D062C2F814E05162D1
:102B600011611BB1D36843EA0E03D36085210023B2
:102B7000116083F311885F4B1B78EBB10123514A3D
:102B8000137044E7584A4FF0007C4FF070095A4BDD
:102B9000516C41F001015164516ABB6041F0010E7A
:102BA0005649C2F824E0C2F8248081F81993C1F88C
:102BB00080C1C1F800C0A1E7202383F31188504BE6
:102BC000DFF858A11B784E4A012BC2F804A06CD143
:102BD0004A4B60224FF0400E4FF4807783F8062373
:102BE0004FF40070C3F880E14FF48061C3F800E057
:102BF0004FF080084FF4000C4FF002094FF0F00E38
:102C000083F80723C3F88081C3F800804FF0804821
:102C100083F80823C3F880711F6083F80923C3F881
:102C20008001186083F80A23C3F88011196083F8C3
:102C30001723C3F880C1C3F800C04FF4805C83F849
:102C40002823C3F884715F60042783F80123C3F845
:102C50008091C3F800904FF0080983F829E3C3F886
:102C6000840158604FF0005083F82A23C3F8841180
:102C7000596083F83E23C3F88481C3F8048083F845
:102C80004C23C3F888C1C3F808C083F802E3C3F833
:102C900080711F6083F803E3C3F88091C3F800904C
:102CA00083F85D23C3F8880198604FF000084FF067
:102CB000010B144BC4464AE0C40B002000780040CE
:102CC000F10F200078080020443000083C09002063
:102CD000DC0800207C0800200008024000100240B0
:102CE00000040240001402400038024000000220AC
:102CF0001F85EB513408002000E6DF0C00E100E006
:102D00002C080020003C014010E000E0BF4B030015
:102D100000ED00E0E40B00208C0B0020842F000865
:102D20000BFA0CF11868CA4310401860586810403C
:102D30005860986810409860D8680240DA6059611D
:102D40000CF1010CBCF1180F3FD05AF83C8018F080
:102D5000040FE5D0BCF10F0F0BFA0CF215D82CF0D4
:102D600003000CF003090F27C8F3031100F18040A2
:102D70004FEA890900F59C3007FA09FE01FA09F1CA
:102D8000876827EA0E0739438160986818F0010FB9
:102D90006FEA020114BF1043084018F0020F986058
:102DA000D86814BF10430840D8600AEBCC004068D4
:102DB000A8B118680CF1010C0243BCF1180F1A609D
:102DC0005A6801EA02015960BFD102222649002354
:102DD0000A7083F311880123244A1370CEE65868E1
:102DE00002435A601A6811401960A9E7204803227B
:102DF000FFF736F9484605220821FFF731F920226E
:102E000082F3118898F800201A49012AC8F8101096
:102E10001CD1D8F828E0DAF84000DEF8001040F0C5
:102E200000508C46CAF84000DEF80C300868DEF826
:102E300008901840DEF804E002FA09F2019B0860ED
:102E400009680A434CF8082B4CF82E300222002364
:102E500088F8002083F3118801238BF80030D0E537
:102E600082F82010FEE700BF2C0800203408002064
:102E7000000002407C2F000800000000000000005D
:102E800010B50F4C0F4A104B216818681160FDF700
:102E900009FF0E49FEF70EF8FDF794FB06A3D3E9F0
:102EA0000023FDF7E3FB00224FF07F53FDF7DEFB2D
:102EB000FDF7EEFD206010BD8A9F654D5723FA3F58
:102EC000F40B0020FC0B0020F80B00200000B443A2
:102ED000054B064A1B6913F0200F136814BF03F15A
:102EE000FF3301331360704700180240F80B0020D5
:0C2EF000014B5B6883607047001000E03D
:102EFC008031000810000220100002201000022077
:102F0C008031000800000220000002200000022096
:102F1C008031000800C0072000C0072000C0072037
:102F2C0080310008000C0020000C0020000C002058
:102F3C0080310008000000000000000000000000CC
:102F4C008031000800400240004002400040024036
:102F5C0080310008000000000000000000000000AC
:102F6C00803100080000000000000000000000009C
:102F7C000000000000000000000000000000000045
:102F8C000000000000000000000000000000000035
:102F9C000000000000000000000000000000000025
:102FAC000000000000000000000000000000000015
:102FBC00000000000000000066000000D12E200080
:102FCC0000000000000000000000000000000000F5
:102FDC0000000000000000000000000000000000E5
:102FEC0000000000000000000000000000000000D5
:102FFC0000000000000000000000000000000000C5
:10300C0000000000000000000000000000000000B4
:10301C0000000000000000000000000000000000A4
:10302C000000000000000000000000000000000094
:10303C0000000000000000008025000000000000DF
:10304C000000000000000000106002400860024018
:10305C0000000B00286002400860024006010C00D2
:10306C00406002400860024010020D0058600240AF
:10307C000860024016030E00706002400C600240B3
:10308C0000040F00886002400C600240060510002E
:10309C00A06002400C60024010061100B8600240B3
:1030AC000C60024016072F001064024008640240B6
:1030BC000008380028640240086402400609390000
:1030CC004064024008640240100A3A00586402400E
:1030DC0008640240160B3B00706402400C64024012
:1030EC00000C3C00886402400C640240060D440055
:1030FC00A06402400C640240100E4500B86402400B
:10310C000C640240160F46006D61696E00160020BB
:10311C00040244080C1014181C202122000000008A
:10312C000074004000000000000000000000FFFFE1
:10313C00903000085E05020E0A00000069646C65A0
:10314C0000000000311D2000911E2000B11D200048
:10315C00011F2000A11D2000F11E2000211D2000B8
:04316C00811E2000A0
:1031700010270000812E2000000000000000000049
:0400000500200201D4
:00000001FF
