:020000040800F2
:1000000000040020010220002125200021252000DD
:100010002125200021252000212520002125200048
:10002000212520002125200021252000B11B2000B2
:10003000212520002125200021252000F10F20006E
:100040002125200021252000212520002125200018
:100050002125200021252000212520002125200008
:10006000212520002125200021252000D11F20004E
:10007000A11F2000711F2000411F2000111F200020
:10008000E11E2000B11E2000312420002125200087
:1000900021252000212520002125200021252000C8
:1000A00021252000B10F200021252000212520003E
:1000B00021252000212520002125200021252000A8
:1000C0002125200021252000212520002125200098
:1000D0002125200021252000212520002125200088
:1000E0002125200021252000212520002125200078
:1000F000212520002125200021252000811E20000F
:100100002125200021252000212520002125200057
:100110002125200021252000212520002125200047
:10012000511E2000211E2000F11D2000C11D2000B5
:10013000911D2000212520002125200021252000BF
:100140002125200021252000212520002125200017
:10015000611D2000311D20005110200021252000AC
:1001600021252000212520002125200021252000F7
:1001700021252000212520002125200021252000E7
:10018000212520002125200081102000212520008C
:1001900021252000212520002125200021252000C7
:1001A00021252000212520002125200021252000B7
:1001B00021252000212520002125200021252000A7
:1001C0002125200021252000212520002125200097
:1001D0002125200021252000212520002125200087
:1001E0002125200021252000212520002125200077
:1001F0002125200021252000212520002125200067
:1002000072B6264880F3098825484EF60851CEF28A
:1002100000010860022080F31488BFF36F8F02F0A2
:10022000C7F901F04DFC4FF055301E491E4A91426E
:100230003CBF41F8040BFAE71C49184A91423CBF05
:1002400041F8040BFAE71A491A4A1B4B9A423EBF7F
:1002500051F8040B42F8040BF8E700201749184A3C
:1002600091423CBF41F8040BFAE702F061F902F059
:1002700097F9144C144DAC4203DA54F8041B884728
:10028000F9E700F0C5FF114C114DAC4203DA54F808
:10029000041B8847F9E702F07BB900000008002042
:1002A00000002000000000200004002000040020C6
:1002B000342900080000022000000220000800206D
:1002C000BC0A0020000220000002200000022000E2
:1002D000000220002DE9F04FC1F80CD0D0F80CD06E
:1002E000BDE8F08F002383F311882846A047002043
:1002F00002F0EEF801F0ACFE00DFFEE781F0004115
:1003000002E000BF83F0004330B54FEA41044FEAFA
:10031000430594EA050F08BF90EA020F1FBF54EA95
:10032000000C55EA020C7FEA645C7FEA655C00F031
:10033000E2804FEA5454D4EB5555B8BF6D420CDD02
:100340002C4480EA020281EA030382EA000083EA85
:10035000010180EA020281EA0303362D88BF30BD25
:1003600011F0004F4FEA01314FF4801C4CEA11317B
:1003700002D0404261EB410113F0004F4FEA0333DA
:100380004CEA133302D0524263EB430394EA050F65
:1003900000F0A780A4F10104D5F1200E0DDB02FAD4
:1003A0000EFC22FA05F2801841F1000103FA0EF268
:1003B000801843FA05F359410EE0A5F120050EF12E
:1003C000200E012A03FA0EFC28BF4CF0020C43FA5F
:1003D00005F3C01851EBE37101F0004507D54FF06C
:1003E000000EDCF1000C7EEB00006EEB0101B1F5BC
:1003F000801F1BD3B1F5001F0CD349085FEA300002
:100400004FEA3C0C04F101044FEA445212F5800F0C
:1004100080F09A80BCF1004F08BF5FEA500C50F1A9
:10042000000041EB045141EA050130BD5FEA4C0C8C
:10043000404141EB010111F4801FA4F10104E9D115
:1004400091F0000F04BF01460020B1FA81F308BF0C
:100450002033A3F10B03B3F120020CDA0C3208DDD8
:1004600002F1140CC2F10C0201FA0CF021FA02F1B3
:100470000CE002F11402D8BFC2F1200C01FA02F123
:1004800020FA0CFCDCBF41EA0C019040E41AA2BF48
:1004900001EB0451294330BD6FEA04041F3C1CDA10
:1004A0000C340EDC04F11404C4F1200220FA04F030
:1004B00001FA02F340EA030021FA04F345EA0301DA
:1004C00030BDC4F10C04C4F1200220FA02F001FA9C
:1004D00004F340EA0300294630BD21FA04F029461E
:1004E00030BD94F0000F83F4801306BF81F48011B7
:1004F0000134013D4EE77FEA645C18BF7FEA655C2A
:1005000029D094EA050F08BF90EA020F05D054EAFB
:10051000000C04BF1946104630BD91EA030F1EBF00
:100520000021002030BD5FEA545C05D14000494104
:1005300028BF41F0004130BD14F580043CBF01F5F7
:10054000801130BD01F0004545F0FE4141F47001DD
:100550004FF0000030BD7FEA645C1ABF19461046B8
:100560007FEA655C1CBF0B46024650EA013406BFB9
:1005700052EA033591EA030F41F4002130BD00BF78
:1005800090F0000F04BF0021704730B54FF4806435
:1005900004F132044FF000054FF0000150E700BFB6
:1005A00090F0000F04BF0021704730B54FF4806415
:1005B00004F1320410F0004548BF40424FF0000102
:1005C0003EE700BF42004FEAE2014FEA31014FEA45
:1005D00002701FBF12F07F4393F07F4F81F0605194
:1005E000704792F0000F14BF93F07F4F704730B503
:1005F0004FF4607401F0004521F0004120E700BF96
:1006000050EA010208BF704730B54FF000050AE01C
:1006100050EA010208BF704730B511F0004502D51D
:10062000404261EB41014FF4806404F132045FEA1F
:10063000915C3FF4DCAE4FF003025FEADC0C18BFC4
:1006400003325FEADC0C18BF033202EBDC02C2F1BA
:10065000200300FA03FC20FA02F001FA03FE40EA4C
:100660000E0021FA02F11444C1E600BF70B54FF04C
:10067000FF0C4CF4E06C1CEA11541DBF1CEA13552E
:1006800094EA0C0F95EA0C0F00F0DEF82C4481EA96
:10069000030621EA4C5123EA4C5350EA013518BFB6
:1006A00052EA033541F4801143F4801338D0A0FBA3
:1006B00002CE4FF00005E1FB02E506F00042E0FB50
:1006C00003E54FF00006E1FB03569CF0000F18BF56
:1006D0004EF0010EA4F1FF04B6F5007F64F54074FE
:1006E00004D25FEA4E0E6D4146EB060642EAC62191
:1006F00041EA55514FEAC52040EA5E504FEACE2EFE
:10070000B4F1FD0C88BFBCF5E06F1ED8BEF1004F00
:1007100008BF5FEA500E50F1000041EB045170BD7C
:1007200006F0004646EA010140EA020081EA0301C0
:10073000B4EB5C04C2BFD4EB0C0541EA045170BDBC
:1007400041F480114FF0000E013C00F3AB8014F136
:10075000360FDEBF002001F0004170BDC4F100047F
:10076000203C35DA0C341BDC04F11404C4F1200500
:1007700000FA05F320FA04F001FA05F240EA02005B
:1007800001F0004221F0004110EBD37021FA04F691
:1007900042EB06015EEA430E08BF20EAD37070BD4B
:1007A000C4F10C04C4F1200500FA04F320FA05F0AA
:1007B00001FA04F240EA020001F0004110EBD370AC
:1007C00041F100015EEA430E08BF20EAD37070BD1C
:1007D000C4F1200500FA05F24EEA020E20FA04F3F5
:1007E00001FA05F243EA020321FA04F001F00041A4
:1007F00021FA04F220EA020000EBD3705EEA430E15
:1008000008BF20EAD37070BD94F0000F0FD101F043
:100810000046400041EB010111F4801F08BF013C7C
:10082000F7D041EA060195F0000F18BF704703F0BA
:100830000046520043EB030313F4801F08BF013D41
:10084000F7D043EA0603704794EA0C0F0CEA1355FD
:1008500018BF95EA0C0F0CD050EA410618BF52EAB7
:100860004306D1D181EA030101F000414FF00000BD
:1008700070BD50EA410606BF1046194652EA4306CB
:1008800019D094EA0C0F02D150EA013613D195EA3F
:100890000C0F05D152EA03361CBF104619460AD187
:1008A00081EA030101F0004141F0FE4141F4700191
:1008B0004FF0000070BD41F0FE4141F4780170BD81
:1008C00070B54FF0FF0C4CF4E06C1CEA11541DBFE6
:1008D0001CEA135594EA0C0F95EA0C0F00F0A7F8E8
:1008E000A4EB050481EA030E52EA03354FEA013115
:1008F00000F088804FEA03334FF0805545EA131328
:1009000043EA12634FEA022245EA111545EA1065EF
:100910004FEA00260EF000419D4208BF964244F186
:10092000FD0404F5407402D25B084FEA3202B61AA5
:1009300065EB03055B084FEA32024FF480104FF479
:10094000002CB6EB020E75EB030E22BFB61A7546ED
:1009500040EA0C005B084FEA3202B6EB020E75EB80
:10096000030E22BFB61A754640EA5C005B084FEAE8
:100970003202B6EB020E75EB030E22BFB61A7546B5
:1009800040EA9C005B084FEA3202B6EB020E75EBC0
:10099000030E22BFB61A754640EADC0055EA060E81
:1009A00018D04FEA051545EA16754FEA06164FEAC4
:1009B000C30343EA52734FEAC2025FEA1C1CC0D170
:1009C00011F4801F0BD141EA00014FF000004FF0FD
:1009D000004CB6E711F4801F04BF01430020B4F1BE
:1009E000FD0C88BFBCF5E06F3FF6AFAEB5EB030C76
:1009F00004BFB6EB020C5FEA500C50F1000041EB73
:100A0000045170BD0EF0004E4EEA113114EB5C043F
:100A1000C2BFD4EB0C0541EA045170BD41F4801112
:100A20004FF0000E013C90E645EA060E8DE60CEA1A
:100A3000135594EA0C0F08BF95EA0C0F3FF43BAF37
:100A400094EA0C0F0AD150EA01347FF434AF95EAEE
:100A50000C0F7FF425AF104619462CE795EA0C0FD2
:100A600006D152EA03353FF4FDAE1046194622E79F
:100A700050EA410618BF52EA43067FF4C5AE50EA79
:100A800041047FF40DAF52EA43057FF4EBAE12E769
:100A90004FEA410212F5001215D211D56FF47873A6
:100AA000B3EB625212D94FEAC12343F0004343EA49
:100AB000505311F0004F23FA02F018BF4042704724
:100AC0004FF00000704750EA013005D111F00040AE
:100AD00008BF6FF0004070474FF00000704700BF44
:100AE00080F0004002E000BF81F0004142001FBFE3
:100AF0005FEA410392EA030F7FEA226C7FEA236CEC
:100B00006AD04FEA1262D2EB1363C1BFD2184140E0
:100B100048404140B8BF5B42192B88BF704710F076
:100B2000004F40F4000020F07F4018BF404211F019
:100B3000004F41F4000121F07F4118BF494292EA81
:100B4000030F3FD0A2F1010241FA03FC10EB0C00AD
:100B5000C3F1200301FA03F100F0004302D549423A
:100B600060EB4000B0F5000F13D3B0F1807F06D3E7
:100B700040084FEA310102F10102FE2A51D2B1F1DF
:100B8000004F40EBC25008BF20F0010040EA0300D4
:100B90007047490040EB000010F4000FA2F1010281
:100BA000EDD1B0FA80FCACF1080CB2EB0C0200FA0B
:100BB0000CF0AABF00EBC25052421843BCBFD04059
:100BC0001843704792F0000F81F4000106BF80F4D3
:100BD00000000132013BB5E74FEA41037FEA226C96
:100BE00018BF7FEA236C21D092EA030F04D092F061
:100BF000000F08BF0846704790EA010F1CBF002095
:100C0000704712F07F4F04D1400028BF40F00040F1
:100C1000704712F100723CBF00F50000704700F011
:100C2000004343F0FE4040F4000070477FEA226238
:100C300016BF08467FEA23630146420206BF5FEA09
:100C4000412390EA010F40F4800070474FF0000309
:100C500004E000BF10F0004348BF40425FEA000CD0
:100C600008BF704743F0964301464FF000001CE078
:100C700050EA010208BF70474FF000030AE000BFCE
:100C800050EA010208BF704711F0004302D540420C
:100C900061EB41015FEA010C02BF8446014600207E
:100CA00043F0B64308BFA3F18053A3F50003BCFA99
:100CB0008CF2083AA3EBC25310DB01FA02FC634446
:100CC00000FA02FCC2F12002BCF1004F20FA02F24D
:100CD00043EB020008BF20F00100704702F1200240
:100CE00001FA02FCC2F1200250EA4C0021FA02F2A1
:100CF00043EB020008BF20EADC7070474FF0FF0CA6
:100D00001CEAD0521EBF1CEAD15392EA0C0F93EAA0
:100D10000C0F6FD01A4480EA010C400218BF5FEA42
:100D200041211ED04FF0006343EA501043EA5111B5
:100D3000A0FB01310CF00040B1F5000F3EBF4900AF
:100D400041EAD3715B0040EA010062F17F02FD2AB3
:100D50001DD8B3F1004F40EBC25008BF20F0010096
:100D6000704790F0000F0CF0004C08BF49024CEAAD
:100D7000502040EA51207F3AC2BFD2F1FF0340EA3F
:100D8000C250704740F400004FF00003013A5DDCB0
:100D900012F1190FDCBF00F000407047C2F10002F1
:100DA000410021FA02F1C2F1200200FA02FC5FEADE
:100DB000310040F1000053EA4C0308BF20EADC7028
:100DC000704792F0000F00F0004C02BF400010F49A
:100DD000000F013AF9D040EA0C0093F0000F01F047
:100DE000004C02BF490011F4000F013BF9D041EA69
:100DF0000C018FE70CEAD15392EA0C0F18BF93EA6B
:100E00000C0F0AD030F0004C18BF31F0004CD8D194
:100E100080EA010000F00040704790F0000F17BF1B
:100E200090F0004F084691F0000F91F0004F14D061
:100E300092EA0C0F01D142020FD193EA0C0F03D1B9
:100E40004B0218BF084608D180EA010000F00040BC
:100E500040F0FE4040F40000704740F0FE4040F497
:100E6000400070474FF0FF0C1CEAD0521EBF1CEA36
:100E7000D15392EA0C0F93EA0C0F69D0A2EB030254
:100E800080EA010C49024FEA402037D04FF08053EE
:100E900043EA111143EA10130CF000408B4238BFB3
:100EA0005B0042F17D024FF4000C8B4224BF5B1AC1
:100EB00040EA0C00B3EB510F24BFA3EB510340EA0F
:100EC0005C00B3EB910F24BFA3EB910340EA9C00BD
:100ED000B3EBD10F24BFA3EBD10340EADC001B012D
:100EE00018BF5FEA1C1CE0D1FD2A3FF650AF8B42D1
:100EF00040EBC25008BF20F0010070470CF0004CDE
:100F00004CEA50207F32C2BFD2F1FF0340EAC25008
:100F1000704740F400004FF00003013A37E792F0C9
:100F2000000F00F0004C02BF400010F4000F013A27
:100F3000F9D040EA0C0093F0000F01F0004C02BF22
:100F4000490011F4000F013BF9D041EA0C0195E78B
:100F50000CEAD15392EA0C0F08D142027FF47DAF24
:100F600093EA0C0F7FF470AF084676E793EA0C0F14
:100F700004D14B023FF44CAF08466EE730F0004C12
:100F800018BF31F0004CCAD130F000427FF45CAFA2
:100F900031F000437FF43CAF5FE700BF000000008A
:100FA000024A136843F080031360704700780040E2
:100FB00008B50B4B00211878DA680428116107D1B5
:100FC0000220187011601161D16821F0FF01D16019
:100FD0005B6803485B689847BDE8084000F078BE4E
:100FE00034080020000000000000000000000000A5
:100FF000F8B5202787F31188124DEA8C2E4601326E
:1010000056F81C3F92B2B342EA8413D01C89013CCB
:10101000A4B21C8174B91A68D968DC605660EA61B0
:1010200084F311881869884787F31188EB691A8956
:10103000002AF0D0002383F31188BDE8F84000F0C7
:1010400047BE00BF44080020000000000000000070
:10105000084B09485968826F890D01F03D0110B5B0
:101060008C05DC600AB1C06F9047BDE8104000F00D
:101070002FBE00BF00640240B00900200000000045
:101080002DE9F0415F4C666D3768F5692A073562D6
:1010900052D1EB0545D4A80617D4390601D52A0646
:1010A00065D46B060DD5202383F31188626CA36C85
:1010B0009A4200F0868027F040070023376083F3D0
:1010C0001188BDE8F04100F003BE202383F31188AE
:1010D000726A94F85C10636901EA0208002B78D008
:1010E000236A626A934278D06269591C0132216294
:1010F000626183F80080226AE3699A425ED2E36803
:10110000414A934209D019684FF0000E1846E16039
:101110004A60C3F824E001F073F9002383F31188D7
:10112000BBE7202383F311884FF4007001F098FA95
:10113000002383F31188AEE715F0080F0CBF0020E1
:101140008020EB074FF0200348BF40F02000A907A4
:1011500048BF40F040006A0748BF40F4807083F306
:10116000118801F07DFA002383F3118891E7202391
:1011700083F31188A36C626C9A4236D0A26B581C20
:10118000216C0132A0648842A26393F8008001D3ED
:10119000E36BA364236B1D4A934209D019684FF097
:1011A000000E184621634A60C3F824E001F028F9D4
:1011B000C6F82880002383F3118872E7A3692362AD
:1011C0009DE7A36B002B3FF476AF102001F048FAA7
:1011D00071E7042001F044FA82E76269002A83D0B3
:1011E0004FF4806001F03CFA97E7A26B002AC5D06B
:1011F000082001F035FA27F0C00343F040033360C4
:10120000D8E700BF580A0020640A0020880A00209E
:101210002DE980488DB0824C00254FF6FF7100AF5C
:1012200004F11C034FF0FF324FF000084FF00009AB
:1012300007F110002460646004F12C06A184E361CE
:1012400023623A6124616461A560E58425677D615C
:10125000BD61FD61C7E9088901F0FAF907F11000E5
:1012600000F0CEFE6F4B70494FF6FF096F4A4FF00A
:10127000800C196003F110086D496E48116001225D
:101280006D4984F84D5008606C49B869D1F80CE09C
:1012900020670EEA090E6A48C4F834C0C4F868C072
:1012A0004EEA0000DFF8C4C1D4F814E0DFF8C091C2
:1012B00025669D61C3F81080C3F8148004F15408BA
:1012C000C4F840E084F84E206566E463C4F84490B6
:1012D000CEF8106004F1580EC860DCF80C009D6078
:1012E00040F08070DD606661A6612026C4F85480FD
:1012F0004FF01008534BA56484F84C20CCF80C0038
:101300005148C4F858E0C4F85CE0C3F8B00F18685E
:101310001043186081F81F8081F8226085F31188DE
:1013200062B686F31188494B02266069C3F898209B
:1013300003F16C0EC3F8CC2003F1900183F8B220C6
:10134000434ADFF830C1C3F88C20424A83F8B060CA
:1013500003F1BC06C3F8A40083F8B150C3F8C4502D
:10136000C3F89CE003F1B80EC3F8A8201D67C3F8CA
:10137000C850C3F8A040C3F8AC30C3F86CC00161DA
:10138000A269C3F8B45090686161C3F8B8E0C3F8CB
:10139000BC60C3F8C060002800F0608383F8B050E0
:1013A0002468A0680028FBD1C3F890406268C3F8A5
:1013B00094201160616080F31188274B4FF0FF3259
:1013C000264C19691A61186159695A615861196A7C
:1013D00061F0805119621862596A5A625862226833
:1013E00042F4807222601A6F02F44072B2F5807F7C
:1013F00003D04FF480321A671867174B1A6F1946DB
:1014000042F019021A670B6F9B07FCD5134C00239F
:1014100013496268134D22F40072134E62602DE08E
:101420004408002090090020D11B2000340A00202D
:101430000000022000000820300A002000ED00E03B
:101440000003FA05001000E055CEACC5B808002036
:10145000E50220008C28000800380240007000409F
:10146000C027000810600240B0090020F0ED00E045
:1014700074280008911C200051F80C5C2B600C3182
:1014800046F8303001301028F6D14FF0FF3ED64EEE
:10149000D64940F2FF7CD64A4FF6FF74C1F808E007
:1014A0004BF67E7BC1F80CE04FF4300AC2F808E03E
:1014B0006FF07049C2F80CE040F60828326BCD4D51
:1014C00042EA0C02CC493263326D42EA0C0CCB4A40
:1014D000C6F850C0DFF86CC36B60C5F808E0C5F80B
:1014E0000CC0DFF864C36C61C5F820C0DFF85CC3D2
:1014F000C5F824C0DFF858C3C5F800C0C5F80434E7
:10150000C5F808E40EF18A4EDFF848C30EF1551E07
:101510000EF5A85EC5F80CE4C5F814B4DFF838E39E
:10152000C5F82034C5F824A4DFF80CA3C5F800E4FE
:101530004FF0770ECAF804306FF44015CAF80890DF
:10154000DFF81893DFF818B3CAF80C90DFF814939B
:10155000CAF81440CAF82090DFF80C93CAF8243077
:10156000CAF800804FF4202A4FF05538C9F80430EB
:10157000C9F808502025C9F80CB0C9F81440C9F8BA
:101580002030C9F824E0C9F800A04FF0086ADFF85D
:10159000DCE2DFF8DC92CEF80430CEF80890CEF82A
:1015A0000C80DFF8D092CEF81440CEF82030CEF880
:1015B0002430CEF80030DFF8C0E2C9F80430DFF89C
:1015C000BCB2C9F808E0DFF8B8E2C9F80C80C9F885
:1015D0001440C9F82030C9F82430C9F80030DFF8C9
:1015E000A492CEF80430CEF808904FF00F09CEF850
:1015F0000CB0DFF894B2CEF81440CEF82030CEF81C
:1016000024B0CEF800A00EF5806E01F1180ADFF8C4
:101610007CB2CEF80430CEF808904FF00109CEF835
:101620000CB04FF0600BCEF81440CEF82030CEF85E
:101630002430CEF80030CEF80434CEF80834CEF89A
:101640000C844B60CEF814448B60CEF82034CB6011
:10165000CEF824340B61CEF800344B61CEF8043858
:101660000B62CEF80838C1F818A0CEF80C88C1F883
:101670001CA0DFF81CA2CEF81448CEF82038CEF813
:101680002438CEF800384FF4802ECAF80430CAF857
:101690000830CAF80C809046CAF81440584CCAF872
:1016A0002030CAF82430CAF800304FF0C00A8C62EB
:1016B000544C81F80090CC62534C0C635349544C09
:1016C00081F812B3C1F880E1C1F800E05361906382
:1016D000504882F8089048F8040B84F80090C2F84B
:1016E00018C0C2F8048002F10C089362D26212653D
:1016F0006360494881F852A3C1F888E100F11009FC
:10170000C2F824C002F13000C1F808E04FF0800EAA
:101710004249C2F80C80E1604149C2F81080D161B1
:10172000A9F11001DFF86C81D163916451643D49E6
:10173000C2F820C04FF0070CD1643B49C2F8588072
:101740005165106350633949DFF84C813848C2F85D
:101750004090C1F804808B60C1F800C080F823E09D
:1017600085F31188137A012B03D1336C43F0804346
:101770003364916D4FF040082E480126536D40F2BE
:101780002D1CA0FB01014FF0020E4FF0FF30002591
:10179000890AD960C3F804809E60C3F800C018624B
:1017A00082F808E082F85C0085F311884FF48070BD
:1017B00000F08EFF802000F08BFF0E4908201E4AAB
:1017C00020230883168383F3118823781B4AB342AE
:1017D000626000F04681A368194A5B09A2FB0323FB
:1017E000DB09013B9BB259E0003802400060024037
:1017F000006402400000024000080020580A002057
:101800000020014044280008162C020000E100E0FE
:101810003408002094280008480A002000000140F5
:10182000480A0020A10F20000078004010E000E0EE
:1018300000ED00E0B5814E1B00080240A42700081F
:10184000C55A7C0A51550040B00B00B00AAA0A00E4
:101850002880AE2A380A0020014000185150550156
:1018600055555055B000BB00000C0240001002401E
:10187000F3FFFFCF00140240FFCF3F005555155135
:101880000018024000F0CC3C00B0B0005055555557
:101890000028024080F93703BF4B0300E2680025AF
:1018A000022115605560217093621561D56085F342
:1018B00011880023784E07F12C08DFF8F891FB60BF
:1018C0004FF0000A4FF0010BC9F800A0202383F36A
:1018D000118862680320E3684CF25031526820702E
:1018E000D962C3F814B0C3F824A0C3F810A01AB189
:1018F000DA6842F00102DA6085221A608AF3118800
:1019000025B128E0013D01350E2D24DC4FF6FF7195
:10191000304600F03DFD5228B860F3D14FF6FF731A
:10192000032207F10801304600F0C2FCB86800F05D
:101930001FFF07F13002202302EB450222F8200CA2
:1019400083F311881E21082000F0A2FB8AF311887E
:1019500001350E2DDADD4FF6FF71304600F018FD2F
:1019600052284FF00105B860AED1FB8BEA4688B033
:1019700007F10E0CFB806946ADF102033CF8022F23
:10198000C44523F8022FF9D14FF00E0E0022530068
:1019900031F81200551C023331F803B0584502D219
:1019A00021F812B0C852AAB29645F0DCBEF1010E81
:1019B000ECD1CA8907F11003D546BA805A8823F8BA
:1019C000022B9C45FAD14FF6FF73032207F1080161
:1019D000304600F06DFCB86800F0CAFE2023B885E0
:1019E00083F311881E21082000F052FB002383F3AB
:1019F0001188E2680125D9F80030506A184401388E
:101A0000FEF7BEFD0022254BFEF75AFF0022244BB5
:101A1000FEF77AFCFFF73CF81E30FFF717F9214973
:101A2000FFF720FA0146F868FFF760F807F10C01AC
:101A3000F8604FF6FF7304221B4800F089FBB91DC4
:101A40004FF6FF730222184800F082FB391D16483A
:101A50004FF6FF73022200F07BFB31E782F8200093
:101A6000FEE7124A4FF0007611494FF0700E506CAD
:101A700040F66F03DFF840C040F001005064506A48
:101A8000C4F808C040F001005062556281F819E3C3
:101A9000C1F880610E6001E7640A0020000059402F
:101AA0000000F03F00007A44880A0020003802401D
:101AB00000E100E0B80A002000E6DF0C00000000B2
:101AC00030B4334B4FF44040324A334C19461C6417
:101AD00010601A6842F001021A600B689B07FCD57F
:101AE0008B682B4A23F003038B608B688B609368B1
:101AF00013F00C03FBD11068254900F0F9001060C9
:101B00009360136843F4A02313600B689D03FCD516
:101B1000224B20484B600B6843F080730B60436896
:101B20005C04FCD503681B4A43F4803303605368AC
:101B3000D903FCD51368174943F4003313604B688D
:101B40009A03FCD5124A13689B01FCD5144B40F252
:101B50000931144D40F2022400209560C2F88C40F7
:101B6000C2F8900019609368094943F0020393603A
:101B70008B6803F00C03082BFAD14B6C43F48043C1
:101B80004B644B6E43F4804330BC4B66704700BFE0
:101B9000003802400070004000040010086C40094A
:101BA000003C02400094993000000000000000005A
:101BB00080B400AFEFF30983203383F30988002357
:101BC00083F31188BD4680BC704700BF0000000051
:101BD00070B4202383F311880D4E4A1E4D420D4CE4
:101BE000336802442468013B2A4058182840231ACD
:101BF0009A4206D802440023326083F3118870BCF5
:101C000070470020002383F3118870BC704700BF29
:101C1000340A0020300A002000000000000000000C
:101C2000202383F3118890F82030072B0ED8DFE8AB
:101C300003F0280D0D2408040D08426A936801334F
:101C4000936090E80C001A6002685360002281687B
:101C50000E4B80F8202010B44FF0FF3444621B6814
:101C60009A688A42FBD25A68002103604260106081
:101C7000586081F3118810BC7047436A00221A60D3
:101C8000E4E7002383F31188704700BF4408002075
:101C9000FEE700BF000000000000000000000000A0
:101CA000084B1A68996930B481F82000012514683E
:101CB000104663601C6082F820509A6130BCFEF7C9
:101CC00009BB00BF44080020000000000000000025
:101CD000202383F31188114B5B6813F4006302D156
:101CE00083F31188704780B400AFEFF309834FF09E
:101CF0008071A3F1200243F8041C82F30988084A8A
:101D0000116892698968926891428CBF054A064AB7
:101D100043F8082CBD4680BC704700BF00ED00E0D2
:101D200044080020F5022000F80220000000000016
:101D3000084B09485968026F090C01F03D0110B5C4
:101D40000C04DC600AB1406F9047BDE81040FFF71B
:101D5000BFBF00BF00640240B009002000000000C7
:101D6000084B09485968826E890901F03D0110B598
:101D70008C01DC600AB1C06E9047BDE81040FFF7EF
:101D8000A7BF00BF00640240B009002000000000AF
:101D900008B5074B07485968026E01F03D01D9604C
:101DA0000AB1406E9047BDE80840FFF791BF00BF01
:101DB00000640240B00900200000000000000000A4
:101DC000084B09481968826D890D01F03D0110B575
:101DD0008C059C600AB1C06D9047BDE81040FFF7CC
:101DE00077BF00BF00640240B0090020000000007F
:101DF000084B09481968026D090C01F03D0110B546
:101E00000C049C600AB1406D9047BDE81040FFF79C
:101E10005FBF00BF00640240B00900200000000066
:101E2000084B09481968826C890901F03D0110B519
:101E30008C019C600AB1C06C9047BDE81040FFF770
:101E400047BF00BF00640240B0090020000000004E
:101E500008B5074B07481968026C01F03D0199600D
:101E60000AB1406C9047BDE80840FFF731BF00BFA2
:101E700000640240B00900200000000000000000E3
:101E8000084B09485968826B890D01F03D0110B576
:101E90008C05DC600AB1C06B9047BDE81040FFF7CD
:101EA00017BF00BF00600240B00900200000000022
:101EB000084B09485968026B090C01F03D0110B547
:101EC0000C04DC600AB1406B9047BDE81040FFF79E
:101ED000FFBE00BF00600240B0090020000000000B
:101EE000084B09485968826A890901F03D0110B51B
:101EF0008C01DC600AB1C06A9047BDE81040FFF772
:101F0000E7BE00BF00600240B009002000000000F2
:101F100008B5074B07485968026A01F03D01D960CE
:101F20000AB1406A9047BDE80840FFF7D1BE00BF44
:101F300000600240B0090020000000000000000026
:101F4000084B094819688269890D01F03D0110B5F7
:101F50008C059C600AB1C0699047BDE81040FFF74E
:101F6000B7BE00BF00600240B009002000000000C2
:101F7000084B094819680269090C01F03D0110B5C8
:101F80000C049C600AB140699047BDE81040FFF71F
:101F90009FBE00BF00600240B009002000000000AA
:101FA000084B094819688268890901F03D0110B59C
:101FB0008C019C600AB1C0689047BDE81040FFF7F3
:101FC00087BE00BF00600240B00900200000000092
:101FD00008B5074B074A196801F03D01996013687D
:101FE0000BB150689847BDE80840FFF771BE00BFCD
:101FF00000600240B0090020000000000000000066
:102000000E4B82685B680E499B1A426830B40C6FB5
:10201000C1681B1B01318360C160D0E90445E4182D
:1020200045F100059342026888BF43609342C0E9CE
:10203000044538BF036030BC704700BF001000E0AB
:102040004408002000000000000000000000000024
:102050000E4A0121106830B40368002594691360AA
:102060005A6080F8201084F82050A168906100E048
:102070001B689A689142FBD35A68214623606260CC
:1020800014605C6030BCFEF725B900BF4408002036
:102090004FF6FF739942F0B587B031D01C4C07461C
:1020A0001C48E369A5691A8905959142049005D9F0
:1020B000891A1B6889B21A898A42F9D35D6801AA14
:1020C00001934FF6FF76029538462A605A60ADF8C4
:1020D0000C101A89511A1981A684FFF7E1FD049B9F
:1020E00053B1019BBDF80C001A89029902441A8170
:1020F0000B60019B5960A684A369586A07B0F0BDC4
:10210000034CFFF7CDFDA369586A07B0F0BD00BFCF
:1021100044080020211C20000000000000000000F6
:1021200061B10246074B04209B6910B4546883E8F0
:1021300014002360536010BCFFF7AABF4FF0FF30BC
:10214000704700BF440800200000000000000000AD
:102150002DE9F04F994683B004460E461546D0F857
:102160001C80202383F31188264B09F1FF3A0027B6
:10217000DB8C1FFA8AFA19FA83F39BB20193A368E6
:1021800013B3616906F1010BA368481C013B606150
:10219000A36033780B7061692369994201D3E368C6
:1021A0006361B8F1000F01D02046C047002383F3DC
:1021B0001188013D07F1010719D0202383F311880D
:1021C000A3685E46002BDCD14FF6FD72924512D813
:1021D0000C4AD18C019A511A89B2894505D32046FF
:1021E000FFF79EFF0028CAD0002383F311883846EA
:1021F00003B0BDE8F08F49462046FFF791FF002865
:10220000BDD0F1E7440800200000000000000000FD
:102210003030FFF79DBF00BF00000000000000004D
:1022200030304FF6FF73FFF793BF00BF0000000090
:10223000F8B504460F461646202383F3118803E0C1
:10224000FFF76EFF002819DBA56831462046002DF8
:10225000F6D06269A368511C013B6161A3601770ED
:10226000626923699A4201D3E3686361E3690BB150
:1022700020469847002080F31188F8BD85F3118827
:10228000F8BD00BF000000000000000000000000DA
:102290003030FFF7CDBF00BF00000000000000009D
:1022A00030304FF6FF72FFF7C3BF00BF00000000E1
:1022B0002DE9F04F994683B004460E461546D0F8F6
:1022C0001C80202383F31188264B09F1FF3A002755
:1022D000DB8C1FFA8AFA19FA83F39BB20193A36885
:1022E00013B3A16906F1010BA368481C013BA0616F
:1022F000A3600B783370A1692369994201D3E36825
:10230000A361B8F1000F01D02046C047002383F33A
:102310001188013D07F1010719D0202383F31188AB
:10232000A3685E46002BDCD14FF6FD72924512D8B1
:102330000C4AD18C019A511A89B2894505D320469D
:10234000FFF7EEFE0028CAD0002383F31188384639
:1023500003B0BDE8F08F49462046FFF7E1FE0028B4
:10236000BDD0F1E74408002000000000000000009C
:102370000C30FFF79DBF00BF000000000000000010
:102380000C304FF6FF73FFF793BF00BF0000000053
:1023900070B5202304460E4683F3118803E0FFF74F
:1023A000BFFE002819DBA56831462046002DF6D077
:1023B000A169A3684A1C2069013B8242A261A36013
:1023C0000D7801D3E368A361E3690BB12046984718
:1023D000002383F31188284670BD85F3118870BDF2
:1023E0000C30FFF7D5BF00BF000000000000000068
:1023F0000C304FF6FF71FFF7CBBF00BF00000000AD
:1024000010B400220446084B816880F820201B6825
:102410009A688A42FBD25A68204623606260146040
:102420005C6010BC704700BF440800200000000042
:10243000F8B5234B00211A681960930635D5214C55
:10244000E06A02685368002B2FD0216969B31368D2
:1024500023F01F031360136813F00103FBD1077A05
:102460003D228D680121466802FA07F7A26A3760AB
:10247000536093609160FDB1052312482370A84713
:102480002378052B15D000232361202383F31188A3
:1024900063693BB14FF0FF31002218465962626117
:1024A000FFF7AEFF002383F31188BDE8F840FFF784
:1024B0000FBC02232370E6E7022325612370E4E7C3
:1024C0000020014000080020000000000000000083
:1024D00038B52022034682F31188104A946904F12A
:1024E0002805A06A6362854206D00368A362FFF7ED
:1024F00087FFA06AA842F8D194F8223043B994F833
:1025000021309B0704D1226963691A6122695361F2
:102510000F20BDE83840FFF7C3BB00BF44080020D0
:10252000FEE700BF00000000000000000000000007
:10253000F0B5124F0026124D07F1800E114C124BD0
:1025400012499C4211D904391A4651F8040F42F835
:10255000040B9442F9D8DA43144424F003040434FD
:1025600023449D4203D943F8046B9D42FBD81037A6
:10257000774502D297E83A00E3E7F0BDB4280008B7
:102580000000022000000220000002203429000880
:10259000FEE700BF00000000000000000000000097
:1025A000704700BF000000000000000000000000B5
:1025B000F0B5BFF34F8FBFF36F8F1B4C0022C4F8F1
:1025C0005022636943F400336361BFF34F8FBFF35D
:1025D0006F8FC4F88420BFF34F8FD4F8803043F658
:1025E000E07EC3F3C906C3F34E33B7075D0105EAC6
:1025F0000E003946324641EA0003013A01F14041FA
:10260000C4F86032531CF6D1203D15F1200FEED1F5
:10261000BFF34F8F636943F480336361BFF34F8F20
:10262000BFF36F8FF0BD00BF00ED00E000000000C1
:10263000034A4CF2503311680B441360704700BFDB
:10264000B80A0020000000000000000000000000A8
:10265000014B5B6883607047001000E000000000E1
:10266000F8B5174F57F8044FBC4221D00546002655
:1026700002E02468BC421BD0E3682B43E36015B141
:1026800022691342F5D06068A368416B90F820205E
:102690000B430A2A43630CD00B2AEAD1426A32EA7E
:1026A0000303E6D14662FFF7ABFE2468BC42E3D1E8
:1026B000F8BD426A1342DCD04662FFF7A1FEF4E7A0
:1026C000580A002000000000000000000000000088
:1026D0002DE9F047002102254FF008084FF00F0CBC
:1026E0001F4C4FF0010E03270FE0266A26EA020274
:1026F00042EA09022262226813402B432360400809
:1027000001F101014FEA850527D04B0001F00702D6
:1027100010F0010F0EFA01F607FA03F34FEA8202F6
:102720006FEA0303EBD0D4F804A0072908FA02F9F2
:102730000CFA02F22AEA06066660A66806EA0306B2
:10274000A660E66806EA0306E660CED9666A26EA6F
:10275000020242EA09026262CDE7BDE8F08700BFEB
:102760000010024000000000000000000000000017
:102770000021022230B40C4608E0012AA3F1300304
:10278000EAB214BF64250A2505FB034420FA01F3CD
:10279000551E0831DBB2002AEFD1303B181930BC8E
:0427A000704700BFBF
:1027A400A086010031262000000000000000000087
:1027B400106002400860024000000B0028600240E4
:1027C4000860024006010C004060024008600240BC
:1027D40010020D00586002400860024016030E000B
:1027E400706002400C60024000040F0088600240E8
:1027F4000C60024006051000A06002400C6002401C
:1028040010061100B86002400C60024016072F0049
:102814001064024008640240000838002864024042
:10282400086402400609390040640240086402401A
:10283400100A3A005864024008640240160B3B0038
:10284400706402400C640240000C3C008864024046
:102854000C640240060D4400A06402400C64024073
:10286400100E4500B86402400C640240160F460086
:102874006D61696E00160020040244080C101418DF
:102884001C2021220000000069646C650000000027
:102894002122200081232000A1222000F1232000F6
:1028A40091222000E1232000112220007123200026
:1028B4003429000800000220000002200000022049
:1028C4003429000800000220000002200000022039
:1028D4003429000800C0072000C0072000C00720DA
:1028E40034290008BC0A0020BC0A0020BC0A0020CD
:1028F400342900080000000000000000000000006F
:1029040034290008004002400040024000400240D8
:10291400342900080000000000000000000000004E
:10292400342900080000000000000000000000003E
:0400000500200201D4
:00000001FF
